{
  "contractName": "HealthBlock",
  "abi": [
    {
      "inputs": [],
      "stateMutability": "nonpayable",
      "type": "constructor"
    },
    {
      "anonymous": false,
      "inputs": [
        {
          "indexed": true,
          "internalType": "address",
          "name": "_from",
          "type": "address"
        },
        {
          "indexed": true,
          "internalType": "string",
          "name": "_name",
          "type": "string"
        }
      ],
      "name": "NDoctor",
      "type": "event"
    },
    {
      "anonymous": false,
      "inputs": [
        {
          "indexed": true,
          "internalType": "address",
          "name": "_from",
          "type": "address"
        },
        {
          "indexed": true,
          "internalType": "string",
          "name": "_name",
          "type": "string"
        }
      ],
      "name": "NHCProvider",
      "type": "event"
    },
    {
      "anonymous": false,
      "inputs": [
        {
          "indexed": true,
          "internalType": "address",
          "name": "_from",
          "type": "address"
        },
        {
          "indexed": true,
          "internalType": "string",
          "name": "_name",
          "type": "string"
        }
      ],
      "name": "NPatient",
      "type": "event"
    },
    {
      "inputs": [
        {
          "internalType": "address",
          "name": "",
          "type": "address"
        }
      ],
      "name": "patients",
      "outputs": [
        {
          "internalType": "string",
          "name": "name",
          "type": "string"
        },
        {
          "internalType": "uint8",
          "name": "age",
          "type": "uint8"
        },
        {
          "internalType": "string",
          "name": "email",
          "type": "string"
        },
        {
          "internalType": "address",
          "name": "id",
          "type": "address"
        }
      ],
      "stateMutability": "view",
      "type": "function",
      "constant": true
    },
    {
      "inputs": [],
      "name": "getPatientInfo",
      "outputs": [
        {
          "internalType": "string",
          "name": "",
          "type": "string"
        },
        {
          "internalType": "uint8",
          "name": "",
          "type": "uint8"
        },
        {
          "internalType": "string",
          "name": "",
          "type": "string"
        }
      ],
      "stateMutability": "view",
      "type": "function",
      "constant": true
    },
    {
      "inputs": [
        {
          "internalType": "address",
          "name": "_address",
          "type": "address"
        }
      ],
      "name": "getPatientInfoAll",
      "outputs": [
        {
          "internalType": "string",
          "name": "",
          "type": "string"
        },
        {
          "internalType": "uint8",
          "name": "",
          "type": "uint8"
        },
        {
          "internalType": "string",
          "name": "",
          "type": "string"
        }
      ],
      "stateMutability": "view",
      "type": "function",
      "constant": true
    },
    {
      "inputs": [
        {
          "internalType": "string",
          "name": "_name",
          "type": "string"
        },
        {
          "internalType": "uint8",
          "name": "_age",
          "type": "uint8"
        },
        {
          "internalType": "string",
          "name": "_email",
          "type": "string"
        }
      ],
      "name": "registerPatient",
      "outputs": [],
      "stateMutability": "nonpayable",
      "type": "function"
    },
    {
      "inputs": [],
      "name": "getDoctorInfo",
      "outputs": [
        {
          "internalType": "string",
          "name": "",
          "type": "string"
        },
        {
          "internalType": "uint8",
          "name": "",
          "type": "uint8"
        },
        {
          "internalType": "string",
          "name": "",
          "type": "string"
        },
        {
          "internalType": "string",
          "name": "",
          "type": "string"
        }
      ],
      "stateMutability": "view",
      "type": "function",
      "constant": true
    },
    {
      "inputs": [
        {
          "internalType": "address",
          "name": "_address",
          "type": "address"
        }
      ],
      "name": "getDoctorInfoAll",
      "outputs": [
        {
          "internalType": "string",
          "name": "",
          "type": "string"
        },
        {
          "internalType": "uint8",
          "name": "",
          "type": "uint8"
        },
        {
          "internalType": "string",
          "name": "",
          "type": "string"
        },
        {
          "internalType": "string",
          "name": "",
          "type": "string"
        }
      ],
      "stateMutability": "view",
      "type": "function",
      "constant": true
    },
    {
      "inputs": [
        {
          "internalType": "string",
          "name": "_name",
          "type": "string"
        },
        {
          "internalType": "uint8",
          "name": "_age",
          "type": "uint8"
        },
        {
          "internalType": "string",
          "name": "_email",
          "type": "string"
        },
        {
          "internalType": "string",
          "name": "_specialization",
          "type": "string"
        }
      ],
      "name": "registerDoctor",
      "outputs": [],
      "stateMutability": "nonpayable",
      "type": "function"
    },
    {
      "inputs": [],
      "name": "getHCProviderInfo",
      "outputs": [
        {
          "internalType": "string",
          "name": "",
          "type": "string"
        },
        {
          "internalType": "string",
          "name": "",
          "type": "string"
        },
        {
          "internalType": "string",
          "name": "",
          "type": "string"
        },
        {
          "internalType": "string",
          "name": "",
          "type": "string"
        }
      ],
      "stateMutability": "view",
      "type": "function",
      "constant": true
    },
    {
      "inputs": [
        {
          "internalType": "address",
          "name": "_address",
          "type": "address"
        }
      ],
      "name": "getHCProviderInfoAll",
      "outputs": [
        {
          "internalType": "string",
          "name": "",
          "type": "string"
        },
        {
          "internalType": "string",
          "name": "",
          "type": "string"
        },
        {
          "internalType": "string",
          "name": "",
          "type": "string"
        },
        {
          "internalType": "string",
          "name": "",
          "type": "string"
        }
      ],
      "stateMutability": "view",
      "type": "function",
      "constant": true
    },
    {
      "inputs": [
        {
          "internalType": "string",
          "name": "_name",
          "type": "string"
        },
        {
          "internalType": "string",
          "name": "_email",
          "type": "string"
        },
        {
          "internalType": "string",
          "name": "_address",
          "type": "string"
        },
        {
          "internalType": "string",
          "name": "_phone",
          "type": "string"
        }
      ],
      "name": "registerHCProvider",
      "outputs": [],
      "stateMutability": "nonpayable",
      "type": "function"
    }
  ],
  "bytecode": "0x608060405234801561001057600080fd5b50336000806101000a81548173ffffffffffffffffffffffffffffffffffffffff021916908373ffffffffffffffffffffffffffffffffffffffff16021790555061246e806100606000396000f3fe608060405234801561001057600080fd5b506004361061009e5760003560e01c8063b2d258ff11610066578063b2d258ff14610165578063b380f5c614610181578063bc4fe402146101a2578063c5b0aab0146101be578063e1e36ab9146101f15761009e565b80630869cfbc146100a35780631c297205146100d6578063326df664146100f2578063916922c414610112578063a9b467ee14610133575b600080fd5b6100bd60048036038101906100b89190611b09565b610224565b6040516100cd9493929190611bf1565b60405180910390f35b6100f060048036038101906100eb9190611da5565b610391565b005b6100fa6105ca565b60405161010993929190611e30565b60405180910390f35b61011a6107f4565b60405161012a9493929190611e75565b60405180910390f35b61014d60048036038101906101489190611b09565b610b2f565b60405161015c93929190611e30565b60405180910390f35b61017f600480360381019061017a9190611ed6565b610cb8565b005b610189611006565b6040516101999493929190611f91565b60405180910390f35b6101bc60048036038101906101b79190611feb565b6112c4565b005b6101d860048036038101906101d39190611b09565b6115e2565b6040516101e89493929190611e75565b60405180910390f35b61020b60048036038101906102069190611b09565b61187b565b60405161021b9493929190611f91565b60405180910390f35b6001602052806000526040600020600091509050806000018054610247906120f1565b80601f0160208091040260200160405190810160405280929190818152602001828054610273906120f1565b80156102c05780601f10610295576101008083540402835291602001916102c0565b820191906000526020600020905b8154815290600101906020018083116102a357829003601f168201915b5050505050908060010160009054906101000a900460ff16908060020180546102e8906120f1565b80601f0160208091040260200160405190810160405280929190818152602001828054610314906120f1565b80156103615780601f1061033657610100808354040283529160200191610361565b820191906000526020600020905b81548152906001019060200180831161034457829003601f168201915b5050505050908060030160009054906101000a900473ffffffffffffffffffffffffffffffffffffffff16905084565b6040516020016103a090612153565b60405160208183030381529060405280519060200120836040516020016103c79190612199565b60405160208183030381529060405280519060200120036103e757600080fd5b6040516020016103f690612153565b604051602081830303815290604052805190602001208160405160200161041d9190612199565b604051602081830303815290604052805190602001200361043d57600080fd5b60008260ff16118015610453575060648260ff16105b61045c57600080fd5b60405180608001604052808481526020018360ff1681526020018281526020013373ffffffffffffffffffffffffffffffffffffffff16815250600160003373ffffffffffffffffffffffffffffffffffffffff1673ffffffffffffffffffffffffffffffffffffffff16815260200190815260200160002060008201518160000190816104ea9190612366565b5060208201518160010160006101000a81548160ff021916908360ff16021790555060408201518160020190816105219190612366565b5060608201518160030160006101000a81548173ffffffffffffffffffffffffffffffffffffffff021916908373ffffffffffffffffffffffffffffffffffffffff1602179055509050508260405161057a9190612199565b60405180910390203373ffffffffffffffffffffffffffffffffffffffff167fe3413e34d7cfab2884866aa8dfc64b0c31d51db035044e04a349a1faf6c7d67660405160405180910390a3505050565b606060006060336000600160008373ffffffffffffffffffffffffffffffffffffffff1673ffffffffffffffffffffffffffffffffffffffff1681526020019081526020016000209050600073ffffffffffffffffffffffffffffffffffffffff168160030160009054906101000a900473ffffffffffffffffffffffffffffffffffffffff1673ffffffffffffffffffffffffffffffffffffffff161161067157600080fd5b6000600160003373ffffffffffffffffffffffffffffffffffffffff1673ffffffffffffffffffffffffffffffffffffffff1681526020019081526020016000209050806000018160010160009054906101000a900460ff16826002018280546106da906120f1565b80601f0160208091040260200160405190810160405280929190818152602001828054610706906120f1565b80156107535780601f1061072857610100808354040283529160200191610753565b820191906000526020600020905b81548152906001019060200180831161073657829003601f168201915b50505050509250808054610766906120f1565b80601f0160208091040260200160405190810160405280929190818152602001828054610792906120f1565b80156107df5780601f106107b4576101008083540402835291602001916107df565b820191906000526020600020905b8154815290600101906020018083116107c257829003601f168201915b50505050509050955095509550505050909192565b606080606080336000600360008373ffffffffffffffffffffffffffffffffffffffff1673ffffffffffffffffffffffffffffffffffffffff1681526020019081526020016000209050600073ffffffffffffffffffffffffffffffffffffffff168160040160009054906101000a900473ffffffffffffffffffffffffffffffffffffffff1673ffffffffffffffffffffffffffffffffffffffff161161089b57600080fd5b6000600360003373ffffffffffffffffffffffffffffffffffffffff1673ffffffffffffffffffffffffffffffffffffffff1681526020019081526020016000209050806000018160010182600201836003018380546108fa906120f1565b80601f0160208091040260200160405190810160405280929190818152602001828054610926906120f1565b80156109735780601f1061094857610100808354040283529160200191610973565b820191906000526020600020905b81548152906001019060200180831161095657829003601f168201915b50505050509350828054610986906120f1565b80601f01602080910402602001604051908101604052809291908181526020018280546109b2906120f1565b80156109ff5780601f106109d4576101008083540402835291602001916109ff565b820191906000526020600020905b8154815290600101906020018083116109e257829003601f168201915b50505050509250818054610a12906120f1565b80601f0160208091040260200160405190810160405280929190818152602001828054610a3e906120f1565b8015610a8b5780601f10610a6057610100808354040283529160200191610a8b565b820191906000526020600020905b815481529060010190602001808311610a6e57829003601f168201915b50505050509150808054610a9e906120f1565b80601f0160208091040260200160405190810160405280929190818152602001828054610aca906120f1565b8015610b175780601f10610aec57610100808354040283529160200191610b17565b820191906000526020600020905b815481529060010190602001808311610afa57829003601f168201915b50505050509050965096509650965050505090919293565b6060600060606000600160008673ffffffffffffffffffffffffffffffffffffffff1673ffffffffffffffffffffffffffffffffffffffff1681526020019081526020016000209050806000018160010160009054906101000a900460ff1682600201828054610b9e906120f1565b80601f0160208091040260200160405190810160405280929190818152602001828054610bca906120f1565b8015610c175780601f10610bec57610100808354040283529160200191610c17565b820191906000526020600020905b815481529060010190602001808311610bfa57829003601f168201915b50505050509250808054610c2a906120f1565b80601f0160208091040260200160405190810160405280929190818152602001828054610c56906120f1565b8015610ca35780601f10610c7857610100808354040283529160200191610ca3565b820191906000526020600020905b815481529060010190602001808311610c8657829003601f168201915b50505050509050935093509350509193909250565b6000600260003373ffffffffffffffffffffffffffffffffffffffff1673ffffffffffffffffffffffffffffffffffffffff1681526020019081526020016000209050604051602001610d0a90612153565b6040516020818303038152906040528051906020012085604051602001610d319190612199565b6040516020818303038152906040528051906020012003610d5157600080fd5b604051602001610d6090612153565b6040516020818303038152906040528051906020012083604051602001610d879190612199565b6040516020818303038152906040528051906020012003610da757600080fd5b604051602001610db690612153565b6040516020818303038152906040528051906020012082604051602001610ddd9190612199565b6040516020818303038152906040528051906020012003610dfd57600080fd5b60008460ff16118015610e13575060648460ff16105b610e1c57600080fd5b600073ffffffffffffffffffffffffffffffffffffffff168160040160009054906101000a900473ffffffffffffffffffffffffffffffffffffffff1673ffffffffffffffffffffffffffffffffffffffff161115610e7a57600080fd5b6040518060a001604052808681526020018560ff1681526020018481526020018381526020013373ffffffffffffffffffffffffffffffffffffffff16815250600260003373ffffffffffffffffffffffffffffffffffffffff1673ffffffffffffffffffffffffffffffffffffffff1681526020019081526020016000206000820151816000019081610f0e9190612366565b5060208201518160010160006101000a81548160ff021916908360ff1602179055506040820151816002019081610f459190612366565b506060820151816003019081610f5b9190612366565b5060808201518160040160006101000a81548173ffffffffffffffffffffffffffffffffffffffff021916908373ffffffffffffffffffffffffffffffffffffffff16021790555090505084604051610fb49190612199565b60405180910390203373ffffffffffffffffffffffffffffffffffffffff167fe3413e34d7cfab2884866aa8dfc64b0c31d51db035044e04a349a1faf6c7d67660405160405180910390a35050505050565b60606000606080336000600260008373ffffffffffffffffffffffffffffffffffffffff1673ffffffffffffffffffffffffffffffffffffffff1681526020019081526020016000209050600073ffffffffffffffffffffffffffffffffffffffff168160040160009054906101000a900473ffffffffffffffffffffffffffffffffffffffff1673ffffffffffffffffffffffffffffffffffffffff16116110ae57600080fd5b6000600260003373ffffffffffffffffffffffffffffffffffffffff1673ffffffffffffffffffffffffffffffffffffffff1681526020019081526020016000209050806000018160010160009054906101000a900460ff16826002018360030183805461111b906120f1565b80601f0160208091040260200160405190810160405280929190818152602001828054611147906120f1565b80156111945780601f1061116957610100808354040283529160200191611194565b820191906000526020600020905b81548152906001019060200180831161117757829003601f168201915b505050505093508180546111a7906120f1565b80601f01602080910402602001604051908101604052809291908181526020018280546111d3906120f1565b80156112205780601f106111f557610100808354040283529160200191611220565b820191906000526020600020905b81548152906001019060200180831161120357829003601f168201915b50505050509150808054611233906120f1565b80601f016020809104026020016040519081016040528092919081815260200182805461125f906120f1565b80156112ac5780601f10611281576101008083540402835291602001916112ac565b820191906000526020600020905b81548152906001019060200180831161128f57829003601f168201915b50505050509050965096509650965050505090919293565b6000600360003373ffffffffffffffffffffffffffffffffffffffff1673ffffffffffffffffffffffffffffffffffffffff168152602001908152602001600020905060405160200161131690612153565b604051602081830303815290604052805190602001208560405160200161133d9190612199565b604051602081830303815290604052805190602001200361135d57600080fd5b60405160200161136c90612153565b60405160208183030381529060405280519060200120846040516020016113939190612199565b60405160208183030381529060405280519060200120036113b357600080fd5b6040516020016113c290612153565b60405160208183030381529060405280519060200120836040516020016113e99190612199565b604051602081830303815290604052805190602001200361140957600080fd5b60405160200161141890612153565b604051602081830303815290604052805190602001208260405160200161143f9190612199565b604051602081830303815290604052805190602001200361145f57600080fd5b600073ffffffffffffffffffffffffffffffffffffffff168160040160009054906101000a900473ffffffffffffffffffffffffffffffffffffffff1673ffffffffffffffffffffffffffffffffffffffff1611156114bd57600080fd5b6040518060a001604052808681526020018581526020018481526020018381526020013373ffffffffffffffffffffffffffffffffffffffff16815250600360003373ffffffffffffffffffffffffffffffffffffffff1673ffffffffffffffffffffffffffffffffffffffff168152602001908152602001600020600082015181600001908161154e9190612366565b5060208201518160010190816115649190612366565b50604082015181600201908161157a9190612366565b5060608201518160030190816115909190612366565b5060808201518160040160006101000a81548173ffffffffffffffffffffffffffffffffffffffff021916908373ffffffffffffffffffffffffffffffffffffffff1602179055509050505050505050565b6060806060806000600360008773ffffffffffffffffffffffffffffffffffffffff1673ffffffffffffffffffffffffffffffffffffffff168152602001908152602001600020905080600001816001018260020183600301838054611647906120f1565b80601f0160208091040260200160405190810160405280929190818152602001828054611673906120f1565b80156116c05780601f10611695576101008083540402835291602001916116c0565b820191906000526020600020905b8154815290600101906020018083116116a357829003601f168201915b505050505093508280546116d3906120f1565b80601f01602080910402602001604051908101604052809291908181526020018280546116ff906120f1565b801561174c5780601f106117215761010080835404028352916020019161174c565b820191906000526020600020905b81548152906001019060200180831161172f57829003601f168201915b5050505050925081805461175f906120f1565b80601f016020809104026020016040519081016040528092919081815260200182805461178b906120f1565b80156117d85780601f106117ad576101008083540402835291602001916117d8565b820191906000526020600020905b8154815290600101906020018083116117bb57829003601f168201915b505050505091508080546117eb906120f1565b80601f0160208091040260200160405190810160405280929190818152602001828054611817906120f1565b80156118645780601f1061183957610100808354040283529160200191611864565b820191906000526020600020905b81548152906001019060200180831161184757829003601f168201915b505050505090509450945094509450509193509193565b606060006060806000600260008773ffffffffffffffffffffffffffffffffffffffff1673ffffffffffffffffffffffffffffffffffffffff1681526020019081526020016000209050806000018160010160009054906101000a900460ff1682600201836003018380546118ef906120f1565b80601f016020809104026020016040519081016040528092919081815260200182805461191b906120f1565b80156119685780601f1061193d57610100808354040283529160200191611968565b820191906000526020600020905b81548152906001019060200180831161194b57829003601f168201915b5050505050935081805461197b906120f1565b80601f01602080910402602001604051908101604052809291908181526020018280546119a7906120f1565b80156119f45780601f106119c9576101008083540402835291602001916119f4565b820191906000526020600020905b8154815290600101906020018083116119d757829003601f168201915b50505050509150808054611a07906120f1565b80601f0160208091040260200160405190810160405280929190818152602001828054611a33906120f1565b8015611a805780601f10611a5557610100808354040283529160200191611a80565b820191906000526020600020905b815481529060010190602001808311611a6357829003601f168201915b505050505090509450945094509450509193509193565b6000604051905090565b600080fd5b600080fd5b600073ffffffffffffffffffffffffffffffffffffffff82169050919050565b6000611ad682611aab565b9050919050565b611ae681611acb565b8114611af157600080fd5b50565b600081359050611b0381611add565b92915050565b600060208284031215611b1f57611b1e611aa1565b5b6000611b2d84828501611af4565b91505092915050565b600081519050919050565b600082825260208201905092915050565b60005b83811015611b70578082015181840152602081019050611b55565b60008484015250505050565b6000601f19601f8301169050919050565b6000611b9882611b36565b611ba28185611b41565b9350611bb2818560208601611b52565b611bbb81611b7c565b840191505092915050565b600060ff82169050919050565b611bdc81611bc6565b82525050565b611beb81611acb565b82525050565b60006080820190508181036000830152611c0b8187611b8d565b9050611c1a6020830186611bd3565b8181036040830152611c2c8185611b8d565b9050611c3b6060830184611be2565b95945050505050565b600080fd5b600080fd5b7f4e487b7100000000000000000000000000000000000000000000000000000000600052604160045260246000fd5b611c8682611b7c565b810181811067ffffffffffffffff82111715611ca557611ca4611c4e565b5b80604052505050565b6000611cb8611a97565b9050611cc48282611c7d565b919050565b600067ffffffffffffffff821115611ce457611ce3611c4e565b5b611ced82611b7c565b9050602081019050919050565b82818337600083830152505050565b6000611d1c611d1784611cc9565b611cae565b905082815260208101848484011115611d3857611d37611c49565b5b611d43848285611cfa565b509392505050565b600082601f830112611d6057611d5f611c44565b5b8135611d70848260208601611d09565b91505092915050565b611d8281611bc6565b8114611d8d57600080fd5b50565b600081359050611d9f81611d79565b92915050565b600080600060608486031215611dbe57611dbd611aa1565b5b600084013567ffffffffffffffff811115611ddc57611ddb611aa6565b5b611de886828701611d4b565b9350506020611df986828701611d90565b925050604084013567ffffffffffffffff811115611e1a57611e19611aa6565b5b611e2686828701611d4b565b9150509250925092565b60006060820190508181036000830152611e4a8186611b8d565b9050611e596020830185611bd3565b8181036040830152611e6b8184611b8d565b9050949350505050565b60006080820190508181036000830152611e8f8187611b8d565b90508181036020830152611ea38186611b8d565b90508181036040830152611eb78185611b8d565b90508181036060830152611ecb8184611b8d565b905095945050505050565b60008060008060808587031215611ef057611eef611aa1565b5b600085013567ffffffffffffffff811115611f0e57611f0d611aa6565b5b611f1a87828801611d4b565b9450506020611f2b87828801611d90565b935050604085013567ffffffffffffffff811115611f4c57611f4b611aa6565b5b611f5887828801611d4b565b925050606085013567ffffffffffffffff811115611f7957611f78611aa6565b5b611f8587828801611d4b565b91505092959194509250565b60006080820190508181036000830152611fab8187611b8d565b9050611fba6020830186611bd3565b8181036040830152611fcc8185611b8d565b90508181036060830152611fe08184611b8d565b905095945050505050565b6000806000806080858703121561200557612004611aa1565b5b600085013567ffffffffffffffff81111561202357612022611aa6565b5b61202f87828801611d4b565b945050602085013567ffffffffffffffff8111156120505761204f611aa6565b5b61205c87828801611d4b565b935050604085013567ffffffffffffffff81111561207d5761207c611aa6565b5b61208987828801611d4b565b925050606085013567ffffffffffffffff8111156120aa576120a9611aa6565b5b6120b687828801611d4b565b91505092959194509250565b7f4e487b7100000000000000000000000000000000000000000000000000000000600052602260045260246000fd5b6000600282049050600182168061210957607f821691505b60208210810361211c5761211b6120c2565b5b50919050565b600081905092915050565b50565b600061213d600083612122565b91506121488261212d565b600082019050919050565b600061215e82612130565b9150819050919050565b600061217382611b36565b61217d8185612122565b935061218d818560208601611b52565b80840191505092915050565b60006121a58284612168565b915081905092915050565b60008190508160005260206000209050919050565b60006020601f8301049050919050565b600082821b905092915050565b6000600883026122127fffffffffffffffffffffffffffffffffffffffffffffffffffffffffffffffff826121d5565b61221c86836121d5565b95508019841693508086168417925050509392505050565b6000819050919050565b6000819050919050565b600061226361225e61225984612234565b61223e565b612234565b9050919050565b6000819050919050565b61227d83612248565b6122916122898261226a565b8484546121e2565b825550505050565b600090565b6122a6612299565b6122b1818484612274565b505050565b5b818110156122d5576122ca60008261229e565b6001810190506122b7565b5050565b601f82111561231a576122eb816121b0565b6122f4846121c5565b81016020851015612303578190505b61231761230f856121c5565b8301826122b6565b50505b505050565b600082821c905092915050565b600061233d6000198460080261231f565b1980831691505092915050565b6000612356838361232c565b9150826002028217905092915050565b61236f82611b36565b67ffffffffffffffff81111561238857612387611c4e565b5b61239282546120f1565b61239d8282856122d9565b600060209050601f8311600181146123d057600084156123be578287015190505b6123c8858261234a565b865550612430565b601f1984166123de866121b0565b60005b82811015612406578489015182556001820191506020850194506020810190506123e1565b86831015612423578489015161241f601f89168261232c565b8355505b6001600288020188555050505b50505050505056fea264697066735822122041e9d206ba340900197cc3cb95eeb2c65ce757ad0f801405044f0f93e8aaa40264736f6c63430008110033",
  "immutableReferences": {},
  "source": "// SPDX-License-Identifier: MIT\npragma solidity >=0.4.22 <0.9.0;\n\n//https://ethereum.stackexchange.com/questions/8615/child-contract-vs-struct?newreg=9940955131d740a1a85cef648b771ef3\ncontract HealthBlock {\n    address private owner;\n\n    struct patient {\n        string name;\n        uint8 age;\n        string email;\n        address id;\n    }\n\n    struct hcprovider {\n        string name;\n        string email;\n        string providerAddress;\n        string phone;\n        address id;\n    }\n\n    struct doctor {\n        string name;\n        uint8 age;\n        string email;\n        string specialization;\n        address id;\n    }\n\n    // event for EVM logging\n    event NPatient(address indexed _from, string indexed _name);\n    event NDoctor(address indexed _from, string indexed _name);\n    event NHCProvider(address indexed _from, string indexed _name);\n    mapping (address => patient) public patients;\n    mapping (address => doctor) internal doctors;\n    mapping (address => hcprovider) internal hcproviders;\n\n    modifier checkHealthCareProvider(address id) {\n            hcprovider storage h = hcproviders[id];\n            require(h.id > address(0x0));//check if HealthCare Provider exists\n            _;\n    }\n\n    modifier checkDoctor(address id) {\n        doctor storage d = doctors[id];\n        require(d.id > address(0x0));//check if doctor exists\n        _;\n    }\n\n    /**\n     * @dev Set contract deployer as owner\n     */\n    constructor() {\n        owner = msg.sender; // 'msg.sender' is sender of current call, contract deployer for a constructor\n    }\n    modifier checkPatient(address id) {\n        patient storage p = patients[id];\n        require(p.id > address(0x0));//check if patient exist\n        _;\n    }\n    function getPatientInfo() public view checkPatient(msg.sender) returns(string memory, uint8, string memory) {\n        patient storage p = patients[msg.sender];\n        return (p.name, p.age, p.email);\n    }  \n    function getPatientInfoAll(address _address) public view returns(string memory, uint8, string memory) {\n        patient storage p = patients[_address];\n        return (p.name, p.age, p.email);\n    }\n    function registerPatient(string memory _name, uint8 _age,string memory _email) public {\n        //patient storage p = patients[msg.sender];\n        require(keccak256(abi.encodePacked(_name)) != keccak256(abi.encodePacked(\"\")));\n        require(keccak256(abi.encodePacked(_email)) != keccak256(abi.encodePacked(\"\")));\n        require((_age > 0) && (_age < 100));\n        patients[msg.sender] = patient({name:_name,age:_age,id:msg.sender,email:_email});\n        emit NPatient(msg.sender, _name);\n    }\n    function getDoctorInfo() public view checkDoctor(msg.sender) returns(string memory, uint8,string memory, string memory) {\n        doctor storage d = doctors[msg.sender];\n        return (d.name, d.age, d.email, d.specialization);\n    }\n    function getDoctorInfoAll(address _address) public view returns(string memory, uint8,string memory, string memory) {\n        doctor storage d = doctors[_address];\n        return (d.name, d.age, d.email, d.specialization);\n    }\n    function registerDoctor(string memory _name, uint8 _age,string memory _email, string memory _specialization) public {\n        doctor storage d = doctors[msg.sender];\n        require(keccak256(abi.encodePacked(_name)) != keccak256(abi.encodePacked(\"\")));\n        require(keccak256(abi.encodePacked(_email)) != keccak256(abi.encodePacked(\"\")));\n        require(keccak256(abi.encodePacked(_specialization)) != keccak256(abi.encodePacked(\"\")));\n        require((_age > 0) && (_age < 100));\n        require(!(d.id > address(0x0)));\n        doctors[msg.sender] = doctor({name:_name,age:_age,id:msg.sender,email:_email, specialization:_specialization});\n        emit NPatient(msg.sender, _name);\n    } \n    function getHCProviderInfo() public view checkHealthCareProvider(msg.sender) returns(string memory, string memory, string memory,  string memory) {\n            hcprovider storage h = hcproviders[msg.sender];\n            return (h.name, h.email, h.providerAddress, h.phone);\n    }\n    function getHCProviderInfoAll(address _address) public view returns(string memory, string memory, string memory, string memory) {\n        hcprovider storage h = hcproviders[_address];\n        return (h.name, h.email, h.providerAddress, h.phone);\n    }\n    function registerHCProvider(string memory _name, string memory _email, string memory _address, string memory _phone) public {\n            hcprovider storage h = hcproviders[msg.sender];\n            require(keccak256(abi.encodePacked(_name)) != keccak256(abi.encodePacked(\"\")));\n            require(keccak256(abi.encodePacked(_email)) != keccak256(abi.encodePacked(\"\")));\n            require(keccak256(abi.encodePacked(_address)) != keccak256(abi.encodePacked(\"\")));\n            require(keccak256(abi.encodePacked(_phone)) != keccak256(abi.encodePacked(\"\")));\n            require(!(h.id > address(0x0)));\n            hcproviders[msg.sender] = hcprovider({name:_name, email:_email, providerAddress:_address, phone:_phone, id:msg.sender});\n    } \n}\n",
  "sourcePath": "/Users/varunalla/Documents/experiments/college/HealthBlock/contracts/HealthBlock.sol",
  "compiler": {
    "name": "solc",
    "version": "0.8.17+commit.8df45f5f.Emscripten.clang"
  },
  "schemaVersion": "3.4.12",
  "updatedAt": "2023-03-08T01:42:10.773Z",
  "networkType": "ethereum",
  "devdoc": {
    "kind": "dev",
    "methods": {
      "constructor": {
        "details": "Set contract deployer as owner"
      }
    },
    "version": 1
  },
  "userdoc": {
    "kind": "user",
    "methods": {},
    "version": 1
  }
}