{
  "contractName": "HealthBlock",
  "abi": [
    {
      "inputs": [],
      "stateMutability": "nonpayable",
      "type": "constructor"
    },
    {
      "anonymous": false,
      "inputs": [
        {
          "indexed": true,
          "internalType": "address",
          "name": "_from",
          "type": "address"
        },
        {
          "indexed": true,
          "internalType": "string",
          "name": "_name",
          "type": "string"
        }
      ],
      "name": "NPatient",
      "type": "event"
    },
    {
      "inputs": [
        {
          "internalType": "uint256",
          "name": "",
          "type": "uint256"
        }
      ],
      "name": "patientemails",
      "outputs": [
        {
          "internalType": "string",
          "name": "",
          "type": "string"
        }
      ],
      "stateMutability": "view",
      "type": "function",
      "constant": true
    },
    {
      "inputs": [
        {
          "internalType": "address",
          "name": "",
          "type": "address"
        }
      ],
      "name": "patients",
      "outputs": [
        {
          "internalType": "string",
          "name": "name",
          "type": "string"
        },
        {
          "internalType": "uint8",
          "name": "age",
          "type": "uint8"
        },
        {
          "internalType": "string",
          "name": "email",
          "type": "string"
        },
        {
          "internalType": "address",
          "name": "id",
          "type": "address"
        }
      ],
      "stateMutability": "view",
      "type": "function",
      "constant": true
    },
    {
      "inputs": [],
      "name": "getPatientInfo",
      "outputs": [
        {
          "internalType": "string",
          "name": "",
          "type": "string"
        },
        {
          "internalType": "uint8",
          "name": "",
          "type": "uint8"
        },
        {
          "internalType": "string",
          "name": "",
          "type": "string"
        }
      ],
      "stateMutability": "view",
      "type": "function",
      "constant": true
    },
    {
      "inputs": [],
      "name": "getPatientInfoNo",
      "outputs": [
        {
          "internalType": "string",
          "name": "",
          "type": "string"
        }
      ],
      "stateMutability": "view",
      "type": "function",
      "constant": true
    },
    {
      "inputs": [
        {
          "internalType": "uint8",
          "name": "num",
          "type": "uint8"
        }
      ],
      "name": "getPatientInfoByNo",
      "outputs": [
        {
          "internalType": "string",
          "name": "",
          "type": "string"
        }
      ],
      "stateMutability": "view",
      "type": "function",
      "constant": true
    },
    {
      "inputs": [
        {
          "internalType": "string",
          "name": "_name",
          "type": "string"
        },
        {
          "internalType": "uint8",
          "name": "_age",
          "type": "uint8"
        },
        {
          "internalType": "string",
          "name": "_email",
          "type": "string"
        }
      ],
      "name": "registerPatient",
      "outputs": [],
      "stateMutability": "nonpayable",
      "type": "function"
    }
  ],
  "bytecode": "0x6080604052600060015534801561001557600080fd5b50336000806101000a81548173ffffffffffffffffffffffffffffffffffffffff021916908373ffffffffffffffffffffffffffffffffffffffff1602179055506112f9806100656000396000f3fe608060405234801561001057600080fd5b50600436106100625760003560e01c80630869cfbc146100675780631c2972051461009a578063326df664146100b65780634e5e9c81146100d657806384a620a0146100f4578063dd77064e14610124575b600080fd5b610081600480360381019061007c9190610ad6565b610154565b6040516100919493929190610bbe565b60405180910390f35b6100b460048036038101906100af9190610d72565b6102c1565b005b6100be610536565b6040516100cd93929190610dfd565b60405180910390f35b6100de610760565b6040516100eb9190610e42565b60405180910390f35b61010e60048036038101906101099190610e64565b61091c565b60405161011b9190610e42565b60405180910390f35b61013e60048036038101906101399190610ec7565b6109c4565b60405161014b9190610e42565b60405180910390f35b600260205280600052604060002060009150905080600001805461017790610f23565b80601f01602080910402602001604051908101604052809291908181526020018280546101a390610f23565b80156101f05780601f106101c5576101008083540402835291602001916101f0565b820191906000526020600020905b8154815290600101906020018083116101d357829003601f168201915b5050505050908060010160009054906101000a900460ff169080600201805461021890610f23565b80601f016020809104026020016040519081016040528092919081815260200182805461024490610f23565b80156102915780601f1061026657610100808354040283529160200191610291565b820191906000526020600020905b81548152906001019060200180831161027457829003601f168201915b5050505050908060030160009054906101000a900473ffffffffffffffffffffffffffffffffffffffff16905084565b6040516020016102d090610f85565b60405160208183030381529060405280519060200120836040516020016102f79190610fcb565b604051602081830303815290604052805190602001200361031757600080fd5b60405160200161032690610f85565b604051602081830303815290604052805190602001208160405160200161034d9190610fcb565b604051602081830303815290604052805190602001200361036d57600080fd5b60008260ff16118015610383575060648260ff16105b61038c57600080fd5b600180600082825461039e9190611011565b925050819055508060036000600154815260200190815260200160002090816103c791906111f1565b5060405180608001604052808481526020018360ff1681526020018281526020013373ffffffffffffffffffffffffffffffffffffffff16815250600260003373ffffffffffffffffffffffffffffffffffffffff1673ffffffffffffffffffffffffffffffffffffffff168152602001908152602001600020600082015181600001908161045691906111f1565b5060208201518160010160006101000a81548160ff021916908360ff160217905550604082015181600201908161048d91906111f1565b5060608201518160030160006101000a81548173ffffffffffffffffffffffffffffffffffffffff021916908373ffffffffffffffffffffffffffffffffffffffff160217905550905050826040516104e69190610fcb565b60405180910390203373ffffffffffffffffffffffffffffffffffffffff167fe3413e34d7cfab2884866aa8dfc64b0c31d51db035044e04a349a1faf6c7d67660405160405180910390a3505050565b606060006060336000600260008373ffffffffffffffffffffffffffffffffffffffff1673ffffffffffffffffffffffffffffffffffffffff1681526020019081526020016000209050600073ffffffffffffffffffffffffffffffffffffffff168160030160009054906101000a900473ffffffffffffffffffffffffffffffffffffffff1673ffffffffffffffffffffffffffffffffffffffff16116105dd57600080fd5b6000600260003373ffffffffffffffffffffffffffffffffffffffff1673ffffffffffffffffffffffffffffffffffffffff1681526020019081526020016000209050806000018160010160009054906101000a900460ff168260020182805461064690610f23565b80601f016020809104026020016040519081016040528092919081815260200182805461067290610f23565b80156106bf5780601f10610694576101008083540402835291602001916106bf565b820191906000526020600020905b8154815290600101906020018083116106a257829003601f168201915b505050505092508080546106d290610f23565b80601f01602080910402602001604051908101604052809291908181526020018280546106fe90610f23565b801561074b5780601f106107205761010080835404028352916020019161074b565b820191906000526020600020905b81548152906001019060200180831161072e57829003601f168201915b50505050509050955095509550505050909192565b6060336000600260008373ffffffffffffffffffffffffffffffffffffffff1673ffffffffffffffffffffffffffffffffffffffff1681526020019081526020016000209050600073ffffffffffffffffffffffffffffffffffffffff168160030160009054906101000a900473ffffffffffffffffffffffffffffffffffffffff1673ffffffffffffffffffffffffffffffffffffffff161161080357600080fd5b6000600260003373ffffffffffffffffffffffffffffffffffffffff1673ffffffffffffffffffffffffffffffffffffffff1681526020019081526020016000209050600073ffffffffffffffffffffffffffffffffffffffff168160030160009054906101000a900473ffffffffffffffffffffffffffffffffffffffff1673ffffffffffffffffffffffffffffffffffffffff1610156108dd576040518060400160405280600281526020017f6e6f000000000000000000000000000000000000000000000000000000000000815250935050610917565b6040518060400160405280600381526020017f79657300000000000000000000000000000000000000000000000000000000008152509350505b505090565b6060600360008360ff168152602001908152602001600020805461093f90610f23565b80601f016020809104026020016040519081016040528092919081815260200182805461096b90610f23565b80156109b85780601f1061098d576101008083540402835291602001916109b8565b820191906000526020600020905b81548152906001019060200180831161099b57829003601f168201915b50505050509050919050565b600360205280600052604060002060009150905080546109e390610f23565b80601f0160208091040260200160405190810160405280929190818152602001828054610a0f90610f23565b8015610a5c5780601f10610a3157610100808354040283529160200191610a5c565b820191906000526020600020905b815481529060010190602001808311610a3f57829003601f168201915b505050505081565b6000604051905090565b600080fd5b600080fd5b600073ffffffffffffffffffffffffffffffffffffffff82169050919050565b6000610aa382610a78565b9050919050565b610ab381610a98565b8114610abe57600080fd5b50565b600081359050610ad081610aaa565b92915050565b600060208284031215610aec57610aeb610a6e565b5b6000610afa84828501610ac1565b91505092915050565b600081519050919050565b600082825260208201905092915050565b60005b83811015610b3d578082015181840152602081019050610b22565b60008484015250505050565b6000601f19601f8301169050919050565b6000610b6582610b03565b610b6f8185610b0e565b9350610b7f818560208601610b1f565b610b8881610b49565b840191505092915050565b600060ff82169050919050565b610ba981610b93565b82525050565b610bb881610a98565b82525050565b60006080820190508181036000830152610bd88187610b5a565b9050610be76020830186610ba0565b8181036040830152610bf98185610b5a565b9050610c086060830184610baf565b95945050505050565b600080fd5b600080fd5b7f4e487b7100000000000000000000000000000000000000000000000000000000600052604160045260246000fd5b610c5382610b49565b810181811067ffffffffffffffff82111715610c7257610c71610c1b565b5b80604052505050565b6000610c85610a64565b9050610c918282610c4a565b919050565b600067ffffffffffffffff821115610cb157610cb0610c1b565b5b610cba82610b49565b9050602081019050919050565b82818337600083830152505050565b6000610ce9610ce484610c96565b610c7b565b905082815260208101848484011115610d0557610d04610c16565b5b610d10848285610cc7565b509392505050565b600082601f830112610d2d57610d2c610c11565b5b8135610d3d848260208601610cd6565b91505092915050565b610d4f81610b93565b8114610d5a57600080fd5b50565b600081359050610d6c81610d46565b92915050565b600080600060608486031215610d8b57610d8a610a6e565b5b600084013567ffffffffffffffff811115610da957610da8610a73565b5b610db586828701610d18565b9350506020610dc686828701610d5d565b925050604084013567ffffffffffffffff811115610de757610de6610a73565b5b610df386828701610d18565b9150509250925092565b60006060820190508181036000830152610e178186610b5a565b9050610e266020830185610ba0565b8181036040830152610e388184610b5a565b9050949350505050565b60006020820190508181036000830152610e5c8184610b5a565b905092915050565b600060208284031215610e7a57610e79610a6e565b5b6000610e8884828501610d5d565b91505092915050565b6000819050919050565b610ea481610e91565b8114610eaf57600080fd5b50565b600081359050610ec181610e9b565b92915050565b600060208284031215610edd57610edc610a6e565b5b6000610eeb84828501610eb2565b91505092915050565b7f4e487b7100000000000000000000000000000000000000000000000000000000600052602260045260246000fd5b60006002820490506001821680610f3b57607f821691505b602082108103610f4e57610f4d610ef4565b5b50919050565b600081905092915050565b50565b6000610f6f600083610f54565b9150610f7a82610f5f565b600082019050919050565b6000610f9082610f62565b9150819050919050565b6000610fa582610b03565b610faf8185610f54565b9350610fbf818560208601610b1f565b80840191505092915050565b6000610fd78284610f9a565b915081905092915050565b7f4e487b7100000000000000000000000000000000000000000000000000000000600052601160045260246000fd5b600061101c82610e91565b915061102783610e91565b925082820190508082111561103f5761103e610fe2565b5b92915050565b60008190508160005260206000209050919050565b60006020601f8301049050919050565b600082821b905092915050565b6000600883026110a77fffffffffffffffffffffffffffffffffffffffffffffffffffffffffffffffff8261106a565b6110b1868361106a565b95508019841693508086168417925050509392505050565b6000819050919050565b60006110ee6110e96110e484610e91565b6110c9565b610e91565b9050919050565b6000819050919050565b611108836110d3565b61111c611114826110f5565b848454611077565b825550505050565b600090565b611131611124565b61113c8184846110ff565b505050565b5b8181101561116057611155600082611129565b600181019050611142565b5050565b601f8211156111a55761117681611045565b61117f8461105a565b8101602085101561118e578190505b6111a261119a8561105a565b830182611141565b50505b505050565b600082821c905092915050565b60006111c8600019846008026111aa565b1980831691505092915050565b60006111e183836111b7565b9150826002028217905092915050565b6111fa82610b03565b67ffffffffffffffff81111561121357611212610c1b565b5b61121d8254610f23565b611228828285611164565b600060209050601f83116001811461125b5760008415611249578287015190505b61125385826111d5565b8655506112bb565b601f19841661126986611045565b60005b828110156112915784890151825560018201915060208501945060208101905061126c565b868310156112ae57848901516112aa601f8916826111b7565b8355505b6001600288020188555050505b50505050505056fea2646970667358221220ce3e2232a59a21863693ccd7fa8577150503f62c49a73a76e5c79c4bd3275ea764736f6c63430008110033",
  "immutableReferences": {},
  "source": "// SPDX-License-Identifier: MIT\npragma solidity >=0.4.22 <0.9.0;\n//https://ethereum.stackexchange.com/questions/8615/child-contract-vs-struct?newreg=9940955131d740a1a85cef648b771ef3\ncontract HealthBlock {\n\n  address private owner;\n\n  constructor(){\n    owner = msg.sender;\n  }\n\n  modifier onlyOwner() {\n    require(msg.sender == owner);\n    _;\n  }\n  event NPatient(address indexed _from, string indexed _name);\n  uint counter=0;\n  mapping (address => patient) public patients;\n  mapping (uint=>string) public patientemails;\n  struct patient {\n        string name;\n        uint8 age;\n        string email;\n        address id;\n  }\n\n  modifier checkPatient(address id) {\n        patient storage p = patients[id];\n        require(p.id > address(0x0));//check if patient exist\n        _;\n  }\n\n  function getPatientInfo() public view checkPatient(msg.sender) returns(string memory, uint8,string memory) {\n        patient storage p = patients[msg.sender];\n        return (p.name, p.age, p.email);\n  }\n\n  function getPatientInfoNo() public view checkPatient(msg.sender) returns(string memory) {\n        patient storage p = patients[msg.sender];\n        if( p.id < address(0x0)) {   // if else statement\n         return \"no\";\n        } else  \n        return \"yes\";\n  }\nfunction getPatientInfoByNo(uint8 num) public view returns(string memory) {\n        return patientemails[num];\n  }\n\n\n  function registerPatient(string memory _name, uint8 _age,string memory _email) public {\n        //patient storage p = patients[msg.sender];\n        require(keccak256(abi.encodePacked(_name)) != keccak256(abi.encodePacked(\"\")));\n        require(keccak256(abi.encodePacked(_email)) != keccak256(abi.encodePacked(\"\")));\n        require((_age > 0) && (_age < 100));\n        counter+=1;\n        patientemails[counter]=_email;\n        //require(p.id == address(0x0));\n        patients[msg.sender] = patient({name:_name,age:_age,id:msg.sender,email:_email});\n        emit NPatient(msg.sender, _name);\n  }\n  \n}\n",
  "sourcePath": "/Users/varunallasat/Documents/experiments/varun/healthblock/contracts/HealthBlock.sol",
  "compiler": {
    "name": "solc",
    "version": "0.8.17+commit.8df45f5f.Emscripten.clang"
  },
  "schemaVersion": "3.4.10",
  "updatedAt": "2022-11-13T23:30:53.906Z",
  "networkType": "ethereum",
  "devdoc": {
    "kind": "dev",
    "methods": {},
    "version": 1
  },
  "userdoc": {
    "kind": "user",
    "methods": {},
    "version": 1
  }
}