{
  "contractName": "HealthBlock",
  "abi": [
    {
      "inputs": [],
      "stateMutability": "nonpayable",
      "type": "constructor"
    },
    {
      "anonymous": false,
      "inputs": [
        {
          "indexed": true,
          "internalType": "address",
          "name": "doctor",
          "type": "address"
        },
        {
          "indexed": true,
          "internalType": "string",
          "name": "doctorName",
          "type": "string"
        },
        {
          "indexed": false,
          "internalType": "string",
          "name": "credentialsHash",
          "type": "string"
        }
      ],
      "name": "DoctorRequestRaised",
      "type": "event"
    },
    {
      "anonymous": false,
      "inputs": [
        {
          "indexed": true,
          "internalType": "address",
          "name": "_from",
          "type": "address"
        },
        {
          "indexed": true,
          "internalType": "string",
          "name": "_name",
          "type": "string"
        }
      ],
      "name": "NDoctor",
      "type": "event"
    },
    {
      "anonymous": false,
      "inputs": [
        {
          "indexed": true,
          "internalType": "address",
          "name": "_from",
          "type": "address"
        },
        {
          "indexed": true,
          "internalType": "string",
          "name": "_name",
          "type": "string"
        }
      ],
      "name": "NHCProvider",
      "type": "event"
    },
    {
      "anonymous": false,
      "inputs": [
        {
          "indexed": true,
          "internalType": "address",
          "name": "_from",
          "type": "address"
        },
        {
          "indexed": true,
          "internalType": "string",
          "name": "_name",
          "type": "string"
        }
      ],
      "name": "NPatient",
      "type": "event"
    },
    {
      "anonymous": false,
      "inputs": [
        {
          "indexed": true,
          "internalType": "address",
          "name": "doctor",
          "type": "address"
        },
        {
          "indexed": true,
          "internalType": "address",
          "name": "provider",
          "type": "address"
        },
        {
          "indexed": true,
          "internalType": "uint256",
          "name": "requestId",
          "type": "uint256"
        }
      ],
      "name": "RequestApproved",
      "type": "event"
    },
    {
      "anonymous": false,
      "inputs": [
        {
          "indexed": true,
          "internalType": "address",
          "name": "doctor",
          "type": "address"
        },
        {
          "indexed": true,
          "internalType": "address",
          "name": "provider",
          "type": "address"
        },
        {
          "indexed": true,
          "internalType": "uint256",
          "name": "requestId",
          "type": "uint256"
        }
      ],
      "name": "RequestRejected",
      "type": "event"
    },
    {
      "inputs": [
        {
          "internalType": "address",
          "name": "",
          "type": "address"
        }
      ],
      "name": "patients",
      "outputs": [
        {
          "internalType": "string",
          "name": "name",
          "type": "string"
        },
        {
          "internalType": "uint8",
          "name": "age",
          "type": "uint8"
        },
        {
          "internalType": "string",
          "name": "email",
          "type": "string"
        },
        {
          "internalType": "address",
          "name": "id",
          "type": "address"
        }
      ],
      "stateMutability": "view",
      "type": "function",
      "constant": true
    },
    {
      "inputs": [
        {
          "internalType": "string",
          "name": "doctorName",
          "type": "string"
        },
        {
          "internalType": "string",
          "name": "credentialsHash",
          "type": "string"
        }
      ],
      "name": "raiseRequest",
      "outputs": [],
      "stateMutability": "nonpayable",
      "type": "function"
    },
    {
      "inputs": [],
      "name": "getRequests",
      "outputs": [
        {
          "components": [
            {
              "internalType": "address",
              "name": "doctor",
              "type": "address"
            },
            {
              "internalType": "string",
              "name": "doctorName",
              "type": "string"
            },
            {
              "internalType": "string",
              "name": "credentialsHash",
              "type": "string"
            },
            {
              "internalType": "string",
              "name": "status",
              "type": "string"
            }
          ],
          "internalType": "struct HealthBlock.Request[]",
          "name": "",
          "type": "tuple[]"
        }
      ],
      "stateMutability": "view",
      "type": "function",
      "constant": true
    },
    {
      "inputs": [],
      "name": "getHCProviders",
      "outputs": [
        {
          "components": [
            {
              "internalType": "string",
              "name": "name",
              "type": "string"
            },
            {
              "internalType": "string",
              "name": "email",
              "type": "string"
            },
            {
              "internalType": "string",
              "name": "providerAddress",
              "type": "string"
            },
            {
              "internalType": "string",
              "name": "phone",
              "type": "string"
            },
            {
              "internalType": "address",
              "name": "id",
              "type": "address"
            }
          ],
          "internalType": "struct HealthBlock.hcprovider[]",
          "name": "",
          "type": "tuple[]"
        }
      ],
      "stateMutability": "view",
      "type": "function",
      "constant": true
    },
    {
      "inputs": [
        {
          "internalType": "uint256",
          "name": "requestId",
          "type": "uint256"
        }
      ],
      "name": "rejectRequest",
      "outputs": [],
      "stateMutability": "nonpayable",
      "type": "function"
    },
    {
      "inputs": [
        {
          "internalType": "uint256",
          "name": "requestId",
          "type": "uint256"
        }
      ],
      "name": "approveRequest",
      "outputs": [],
      "stateMutability": "nonpayable",
      "type": "function"
    },
    {
      "inputs": [],
      "name": "getPatientInfo",
      "outputs": [
        {
          "internalType": "string",
          "name": "",
          "type": "string"
        },
        {
          "internalType": "uint8",
          "name": "",
          "type": "uint8"
        },
        {
          "internalType": "string",
          "name": "",
          "type": "string"
        }
      ],
      "stateMutability": "view",
      "type": "function",
      "constant": true
    },
    {
      "inputs": [
        {
          "internalType": "address",
          "name": "_address",
          "type": "address"
        }
      ],
      "name": "getPatientInfoAll",
      "outputs": [
        {
          "internalType": "string",
          "name": "",
          "type": "string"
        },
        {
          "internalType": "uint8",
          "name": "",
          "type": "uint8"
        },
        {
          "internalType": "string",
          "name": "",
          "type": "string"
        }
      ],
      "stateMutability": "view",
      "type": "function",
      "constant": true
    },
    {
      "inputs": [
        {
          "internalType": "string",
          "name": "_name",
          "type": "string"
        },
        {
          "internalType": "uint8",
          "name": "_age",
          "type": "uint8"
        },
        {
          "internalType": "string",
          "name": "_email",
          "type": "string"
        }
      ],
      "name": "registerPatient",
      "outputs": [],
      "stateMutability": "nonpayable",
      "type": "function"
    },
    {
      "inputs": [],
      "name": "getDoctorInfo",
      "outputs": [
        {
          "internalType": "string",
          "name": "",
          "type": "string"
        },
        {
          "internalType": "uint8",
          "name": "",
          "type": "uint8"
        },
        {
          "internalType": "string",
          "name": "",
          "type": "string"
        },
        {
          "internalType": "string",
          "name": "",
          "type": "string"
        }
      ],
      "stateMutability": "view",
      "type": "function",
      "constant": true
    },
    {
      "inputs": [
        {
          "internalType": "address",
          "name": "_address",
          "type": "address"
        }
      ],
      "name": "getDoctorInfoAll",
      "outputs": [
        {
          "internalType": "string",
          "name": "",
          "type": "string"
        },
        {
          "internalType": "uint8",
          "name": "",
          "type": "uint8"
        },
        {
          "internalType": "string",
          "name": "",
          "type": "string"
        },
        {
          "internalType": "string",
          "name": "",
          "type": "string"
        }
      ],
      "stateMutability": "view",
      "type": "function",
      "constant": true
    },
    {
      "inputs": [
        {
          "internalType": "string",
          "name": "_name",
          "type": "string"
        },
        {
          "internalType": "uint8",
          "name": "_age",
          "type": "uint8"
        },
        {
          "internalType": "string",
          "name": "_email",
          "type": "string"
        },
        {
          "internalType": "string",
          "name": "_specialization",
          "type": "string"
        }
      ],
      "name": "registerDoctor",
      "outputs": [],
      "stateMutability": "nonpayable",
      "type": "function"
    },
    {
      "inputs": [],
      "name": "getHCProviderInfo",
      "outputs": [
        {
          "internalType": "string",
          "name": "",
          "type": "string"
        },
        {
          "internalType": "string",
          "name": "",
          "type": "string"
        },
        {
          "internalType": "string",
          "name": "",
          "type": "string"
        },
        {
          "internalType": "string",
          "name": "",
          "type": "string"
        }
      ],
      "stateMutability": "view",
      "type": "function",
      "constant": true
    },
    {
      "inputs": [
        {
          "internalType": "address",
          "name": "_address",
          "type": "address"
        }
      ],
      "name": "getHCProviderInfoAll",
      "outputs": [
        {
          "internalType": "string",
          "name": "",
          "type": "string"
        },
        {
          "internalType": "string",
          "name": "",
          "type": "string"
        },
        {
          "internalType": "string",
          "name": "",
          "type": "string"
        },
        {
          "internalType": "string",
          "name": "",
          "type": "string"
        }
      ],
      "stateMutability": "view",
      "type": "function",
      "constant": true
    },
    {
      "inputs": [
        {
          "internalType": "string",
          "name": "_name",
          "type": "string"
        },
        {
          "internalType": "string",
          "name": "_email",
          "type": "string"
        },
        {
          "internalType": "string",
          "name": "_address",
          "type": "string"
        },
        {
          "internalType": "string",
          "name": "_phone",
          "type": "string"
        }
      ],
      "name": "registerHCProvider",
      "outputs": [],
      "stateMutability": "nonpayable",
      "type": "function"
    }
  ],
  "bytecode": "0x608060405234801561001057600080fd5b50336000806101000a81548173ffffffffffffffffffffffffffffffffffffffff021916908373ffffffffffffffffffffffffffffffffffffffff16021790555061384e806100606000396000f3fe608060405234801561001057600080fd5b50600436106100f55760003560e01c8063a9b467ee11610097578063bc4fe40211610066578063bc4fe4021461026d578063c5b0aab014610289578063d7d1bbdb146102bc578063e1e36ab9146102d8576100f5565b8063a9b467ee146101e2578063afc3b5c414610214578063b2d258ff14610230578063b380f5c61461024c576100f5565b8063326df664116100d3578063326df664146101655780634cdfcda9146101855780638813ce12146101a3578063916922c4146101c1576100f5565b80630869cfbc146100fa5780631c2972051461012d5780632d7788db14610149575b600080fd5b610114600480360381019061010f91906129a1565b61030b565b6040516101249493929190612a89565b60405180910390f35b61014760048036038101906101429190612c3d565b610478565b005b610163600480360381019061015e9190612cfe565b6106b1565b005b61016d6108ad565b60405161017c93929190612d2b565b60405180910390f35b61018d610ad7565b60405161019a9190612f16565b60405180910390f35b6101ab610f06565b6040516101b8919061306b565b60405180910390f35b6101c961125d565b6040516101d9949392919061308d565b60405180910390f35b6101fc60048036038101906101f791906129a1565b611598565b60405161020b93929190612d2b565b60405180910390f35b61022e600480360381019061022991906130ee565b611721565b005b61024a60048036038101906102459190613166565b61190f565b005b610254611c5d565b6040516102649493929190613221565b60405180910390f35b6102876004803603810190610282919061327b565b611f1b565b005b6102a3600480360381019061029e91906129a1565b612239565b6040516102b3949392919061308d565b60405180910390f35b6102d660048036038101906102d19190612cfe565b6124d2565b005b6102f260048036038101906102ed91906129a1565b6126ce565b6040516103029493929190613221565b60405180910390f35b600260205280600052604060002060009150905080600001805461032e90613381565b80601f016020809104026020016040519081016040528092919081815260200182805461035a90613381565b80156103a75780601f1061037c576101008083540402835291602001916103a7565b820191906000526020600020905b81548152906001019060200180831161038a57829003601f168201915b5050505050908060010160009054906101000a900460ff16908060020180546103cf90613381565b80601f01602080910402602001604051908101604052809291908181526020018280546103fb90613381565b80156104485780601f1061041d57610100808354040283529160200191610448565b820191906000526020600020905b81548152906001019060200180831161042b57829003601f168201915b5050505050908060030160009054906101000a900473ffffffffffffffffffffffffffffffffffffffff16905084565b604051602001610487906133e3565b60405160208183030381529060405280519060200120836040516020016104ae9190613429565b60405160208183030381529060405280519060200120036104ce57600080fd5b6040516020016104dd906133e3565b60405160208183030381529060405280519060200120816040516020016105049190613429565b604051602081830303815290604052805190602001200361052457600080fd5b60008260ff1611801561053a575060648260ff16105b61054357600080fd5b60405180608001604052808481526020018360ff1681526020018281526020013373ffffffffffffffffffffffffffffffffffffffff16815250600260003373ffffffffffffffffffffffffffffffffffffffff1673ffffffffffffffffffffffffffffffffffffffff16815260200190815260200160002060008201518160000190816105d191906135ec565b5060208201518160010160006101000a81548160ff021916908360ff160217905550604082015181600201908161060891906135ec565b5060608201518160030160006101000a81548173ffffffffffffffffffffffffffffffffffffffff021916908373ffffffffffffffffffffffffffffffffffffffff160217905550905050826040516106619190613429565b60405180910390203373ffffffffffffffffffffffffffffffffffffffff167fe3413e34d7cfab2884866aa8dfc64b0c31d51db035044e04a349a1faf6c7d67660405160405180910390a3505050565b60008054906101000a900473ffffffffffffffffffffffffffffffffffffffff1673ffffffffffffffffffffffffffffffffffffffff163373ffffffffffffffffffffffffffffffffffffffff161461073f576040517f08c379a000000000000000000000000000000000000000000000000000000000815260040161073690613730565b60405180910390fd5b6000600160008060009054906101000a900473ffffffffffffffffffffffffffffffffffffffff1673ffffffffffffffffffffffffffffffffffffffff1673ffffffffffffffffffffffffffffffffffffffff16815260200190815260200160002082815481106107b3576107b2613750565b5b906000526020600020906004020190506040518060400160405280600881526020017f72656a656374656400000000000000000000000000000000000000000000000081525081600301908161080991906135ec565b508160008054906101000a900473ffffffffffffffffffffffffffffffffffffffff1673ffffffffffffffffffffffffffffffffffffffff168260000160009054906101000a900473ffffffffffffffffffffffffffffffffffffffff1673ffffffffffffffffffffffffffffffffffffffff167f4d2b09745b50f68da85b0b25854d46c2b85b43dd6f04ba6f3f503ff878bf4ae560405160405180910390a45050565b606060006060336000600260008373ffffffffffffffffffffffffffffffffffffffff1673ffffffffffffffffffffffffffffffffffffffff1681526020019081526020016000209050600073ffffffffffffffffffffffffffffffffffffffff168160030160009054906101000a900473ffffffffffffffffffffffffffffffffffffffff1673ffffffffffffffffffffffffffffffffffffffff161161095457600080fd5b6000600260003373ffffffffffffffffffffffffffffffffffffffff1673ffffffffffffffffffffffffffffffffffffffff1681526020019081526020016000209050806000018160010160009054906101000a900460ff16826002018280546109bd90613381565b80601f01602080910402602001604051908101604052809291908181526020018280546109e990613381565b8015610a365780601f10610a0b57610100808354040283529160200191610a36565b820191906000526020600020905b815481529060010190602001808311610a1957829003601f168201915b50505050509250808054610a4990613381565b80601f0160208091040260200160405190810160405280929190818152602001828054610a7590613381565b8015610ac25780601f10610a9757610100808354040283529160200191610ac2565b820191906000526020600020905b815481529060010190602001808311610aa557829003601f168201915b50505050509050955095509550505050909192565b606060004767ffffffffffffffff811115610af557610af4612ae6565b5b604051908082528060200260200182016040528015610b2e57816020015b610b1b6128ea565b815260200190600190039081610b135790505b5090506000805b8251811015610efd57600073ffffffffffffffffffffffffffffffffffffffff16600460003373ffffffffffffffffffffffffffffffffffffffff1673ffffffffffffffffffffffffffffffffffffffff16815260200190815260200160002060040160009054906101000a900473ffffffffffffffffffffffffffffffffffffffff1673ffffffffffffffffffffffffffffffffffffffff161115610eea57600460003373ffffffffffffffffffffffffffffffffffffffff1673ffffffffffffffffffffffffffffffffffffffff1681526020019081526020016000206040518060a0016040529081600082018054610c2f90613381565b80601f0160208091040260200160405190810160405280929190818152602001828054610c5b90613381565b8015610ca85780601f10610c7d57610100808354040283529160200191610ca8565b820191906000526020600020905b815481529060010190602001808311610c8b57829003601f168201915b50505050508152602001600182018054610cc190613381565b80601f0160208091040260200160405190810160405280929190818152602001828054610ced90613381565b8015610d3a5780601f10610d0f57610100808354040283529160200191610d3a565b820191906000526020600020905b815481529060010190602001808311610d1d57829003601f168201915b50505050508152602001600282018054610d5390613381565b80601f0160208091040260200160405190810160405280929190818152602001828054610d7f90613381565b8015610dcc5780601f10610da157610100808354040283529160200191610dcc565b820191906000526020600020905b815481529060010190602001808311610daf57829003601f168201915b50505050508152602001600382018054610de590613381565b80601f0160208091040260200160405190810160405280929190818152602001828054610e1190613381565b8015610e5e5780601f10610e3357610100808354040283529160200191610e5e565b820191906000526020600020905b815481529060010190602001808311610e4157829003601f168201915b505050505081526020016004820160009054906101000a900473ffffffffffffffffffffffffffffffffffffffff1673ffffffffffffffffffffffffffffffffffffffff1673ffffffffffffffffffffffffffffffffffffffff1681525050838381518110610ed057610ecf613750565b5b60200260200101819052508180610ee6906137ae565b9250505b8080610ef5906137ae565b915050610b35565b50819250505090565b606060008054906101000a900473ffffffffffffffffffffffffffffffffffffffff1673ffffffffffffffffffffffffffffffffffffffff163373ffffffffffffffffffffffffffffffffffffffff1614610f96576040517f08c379a0000000000000000000000000000000000000000000000000000000008152600401610f8d90613730565b60405180910390fd5b600160008060009054906101000a900473ffffffffffffffffffffffffffffffffffffffff1673ffffffffffffffffffffffffffffffffffffffff1673ffffffffffffffffffffffffffffffffffffffff168152602001908152602001600020805480602002602001604051908101604052809291908181526020016000905b8282101561125457838290600052602060002090600402016040518060800160405290816000820160009054906101000a900473ffffffffffffffffffffffffffffffffffffffff1673ffffffffffffffffffffffffffffffffffffffff1673ffffffffffffffffffffffffffffffffffffffff16815260200160018201805461109f90613381565b80601f01602080910402602001604051908101604052809291908181526020018280546110cb90613381565b80156111185780601f106110ed57610100808354040283529160200191611118565b820191906000526020600020905b8154815290600101906020018083116110fb57829003601f168201915b5050505050815260200160028201805461113190613381565b80601f016020809104026020016040519081016040528092919081815260200182805461115d90613381565b80156111aa5780601f1061117f576101008083540402835291602001916111aa565b820191906000526020600020905b81548152906001019060200180831161118d57829003601f168201915b505050505081526020016003820180546111c390613381565b80601f01602080910402602001604051908101604052809291908181526020018280546111ef90613381565b801561123c5780601f106112115761010080835404028352916020019161123c565b820191906000526020600020905b81548152906001019060200180831161121f57829003601f168201915b50505050508152505081526020019060010190611016565b50505050905090565b606080606080336000600460008373ffffffffffffffffffffffffffffffffffffffff1673ffffffffffffffffffffffffffffffffffffffff1681526020019081526020016000209050600073ffffffffffffffffffffffffffffffffffffffff168160040160009054906101000a900473ffffffffffffffffffffffffffffffffffffffff1673ffffffffffffffffffffffffffffffffffffffff161161130457600080fd5b6000600460003373ffffffffffffffffffffffffffffffffffffffff1673ffffffffffffffffffffffffffffffffffffffff16815260200190815260200160002090508060000181600101826002018360030183805461136390613381565b80601f016020809104026020016040519081016040528092919081815260200182805461138f90613381565b80156113dc5780601f106113b1576101008083540402835291602001916113dc565b820191906000526020600020905b8154815290600101906020018083116113bf57829003601f168201915b505050505093508280546113ef90613381565b80601f016020809104026020016040519081016040528092919081815260200182805461141b90613381565b80156114685780601f1061143d57610100808354040283529160200191611468565b820191906000526020600020905b81548152906001019060200180831161144b57829003601f168201915b5050505050925081805461147b90613381565b80601f01602080910402602001604051908101604052809291908181526020018280546114a790613381565b80156114f45780601f106114c9576101008083540402835291602001916114f4565b820191906000526020600020905b8154815290600101906020018083116114d757829003601f168201915b5050505050915080805461150790613381565b80601f016020809104026020016040519081016040528092919081815260200182805461153390613381565b80156115805780601f1061155557610100808354040283529160200191611580565b820191906000526020600020905b81548152906001019060200180831161156357829003601f168201915b50505050509050965096509650965050505090919293565b6060600060606000600260008673ffffffffffffffffffffffffffffffffffffffff1673ffffffffffffffffffffffffffffffffffffffff1681526020019081526020016000209050806000018160010160009054906101000a900460ff168260020182805461160790613381565b80601f016020809104026020016040519081016040528092919081815260200182805461163390613381565b80156116805780601f1061165557610100808354040283529160200191611680565b820191906000526020600020905b81548152906001019060200180831161166357829003601f168201915b5050505050925080805461169390613381565b80601f01602080910402602001604051908101604052809291908181526020018280546116bf90613381565b801561170c5780601f106116e15761010080835404028352916020019161170c565b820191906000526020600020905b8154815290600101906020018083116116ef57829003601f168201915b50505050509050935093509350509193909250565b600060405180608001604052803373ffffffffffffffffffffffffffffffffffffffff1681526020018481526020018381526020016040518060400160405280600781526020017f70656e64696e67000000000000000000000000000000000000000000000000008152508152509050600160008060009054906101000a900473ffffffffffffffffffffffffffffffffffffffff1673ffffffffffffffffffffffffffffffffffffffff1673ffffffffffffffffffffffffffffffffffffffff16815260200190815260200160002081908060018154018082558091505060019003906000526020600020906004020160009091909190915060008201518160000160006101000a81548173ffffffffffffffffffffffffffffffffffffffff021916908373ffffffffffffffffffffffffffffffffffffffff160217905550602082015181600101908161187791906135ec565b50604082015181600201908161188d91906135ec565b5060608201518160030190816118a391906135ec565b505050826040516118b49190613429565b60405180910390203373ffffffffffffffffffffffffffffffffffffffff167f13bea7f2b146e27ade33081397e247a39c6fa801e1c40c9d03fd9d808e3bdfcd8460405161190291906137f6565b60405180910390a3505050565b6000600360003373ffffffffffffffffffffffffffffffffffffffff1673ffffffffffffffffffffffffffffffffffffffff1681526020019081526020016000209050604051602001611961906133e3565b60405160208183030381529060405280519060200120856040516020016119889190613429565b60405160208183030381529060405280519060200120036119a857600080fd5b6040516020016119b7906133e3565b60405160208183030381529060405280519060200120836040516020016119de9190613429565b60405160208183030381529060405280519060200120036119fe57600080fd5b604051602001611a0d906133e3565b6040516020818303038152906040528051906020012082604051602001611a349190613429565b6040516020818303038152906040528051906020012003611a5457600080fd5b60008460ff16118015611a6a575060648460ff16105b611a7357600080fd5b600073ffffffffffffffffffffffffffffffffffffffff168160040160009054906101000a900473ffffffffffffffffffffffffffffffffffffffff1673ffffffffffffffffffffffffffffffffffffffff161115611ad157600080fd5b6040518060a001604052808681526020018560ff1681526020018481526020018381526020013373ffffffffffffffffffffffffffffffffffffffff16815250600360003373ffffffffffffffffffffffffffffffffffffffff1673ffffffffffffffffffffffffffffffffffffffff1681526020019081526020016000206000820151816000019081611b6591906135ec565b5060208201518160010160006101000a81548160ff021916908360ff1602179055506040820151816002019081611b9c91906135ec565b506060820151816003019081611bb291906135ec565b5060808201518160040160006101000a81548173ffffffffffffffffffffffffffffffffffffffff021916908373ffffffffffffffffffffffffffffffffffffffff16021790555090505084604051611c0b9190613429565b60405180910390203373ffffffffffffffffffffffffffffffffffffffff167fe3413e34d7cfab2884866aa8dfc64b0c31d51db035044e04a349a1faf6c7d67660405160405180910390a35050505050565b60606000606080336000600360008373ffffffffffffffffffffffffffffffffffffffff1673ffffffffffffffffffffffffffffffffffffffff1681526020019081526020016000209050600073ffffffffffffffffffffffffffffffffffffffff168160040160009054906101000a900473ffffffffffffffffffffffffffffffffffffffff1673ffffffffffffffffffffffffffffffffffffffff1611611d0557600080fd5b6000600360003373ffffffffffffffffffffffffffffffffffffffff1673ffffffffffffffffffffffffffffffffffffffff1681526020019081526020016000209050806000018160010160009054906101000a900460ff168260020183600301838054611d7290613381565b80601f0160208091040260200160405190810160405280929190818152602001828054611d9e90613381565b8015611deb5780601f10611dc057610100808354040283529160200191611deb565b820191906000526020600020905b815481529060010190602001808311611dce57829003601f168201915b50505050509350818054611dfe90613381565b80601f0160208091040260200160405190810160405280929190818152602001828054611e2a90613381565b8015611e775780601f10611e4c57610100808354040283529160200191611e77565b820191906000526020600020905b815481529060010190602001808311611e5a57829003601f168201915b50505050509150808054611e8a90613381565b80601f0160208091040260200160405190810160405280929190818152602001828054611eb690613381565b8015611f035780601f10611ed857610100808354040283529160200191611f03565b820191906000526020600020905b815481529060010190602001808311611ee657829003601f168201915b50505050509050965096509650965050505090919293565b6000600460003373ffffffffffffffffffffffffffffffffffffffff1673ffffffffffffffffffffffffffffffffffffffff1681526020019081526020016000209050604051602001611f6d906133e3565b6040516020818303038152906040528051906020012085604051602001611f949190613429565b6040516020818303038152906040528051906020012003611fb457600080fd5b604051602001611fc3906133e3565b6040516020818303038152906040528051906020012084604051602001611fea9190613429565b604051602081830303815290604052805190602001200361200a57600080fd5b604051602001612019906133e3565b60405160208183030381529060405280519060200120836040516020016120409190613429565b604051602081830303815290604052805190602001200361206057600080fd5b60405160200161206f906133e3565b60405160208183030381529060405280519060200120826040516020016120969190613429565b60405160208183030381529060405280519060200120036120b657600080fd5b600073ffffffffffffffffffffffffffffffffffffffff168160040160009054906101000a900473ffffffffffffffffffffffffffffffffffffffff1673ffffffffffffffffffffffffffffffffffffffff16111561211457600080fd5b6040518060a001604052808681526020018581526020018481526020018381526020013373ffffffffffffffffffffffffffffffffffffffff16815250600460003373ffffffffffffffffffffffffffffffffffffffff1673ffffffffffffffffffffffffffffffffffffffff16815260200190815260200160002060008201518160000190816121a591906135ec565b5060208201518160010190816121bb91906135ec565b5060408201518160020190816121d191906135ec565b5060608201518160030190816121e791906135ec565b5060808201518160040160006101000a81548173ffffffffffffffffffffffffffffffffffffffff021916908373ffffffffffffffffffffffffffffffffffffffff1602179055509050505050505050565b6060806060806000600460008773ffffffffffffffffffffffffffffffffffffffff1673ffffffffffffffffffffffffffffffffffffffff16815260200190815260200160002090508060000181600101826002018360030183805461229e90613381565b80601f01602080910402602001604051908101604052809291908181526020018280546122ca90613381565b80156123175780601f106122ec57610100808354040283529160200191612317565b820191906000526020600020905b8154815290600101906020018083116122fa57829003601f168201915b5050505050935082805461232a90613381565b80601f016020809104026020016040519081016040528092919081815260200182805461235690613381565b80156123a35780601f10612378576101008083540402835291602001916123a3565b820191906000526020600020905b81548152906001019060200180831161238657829003601f168201915b505050505092508180546123b690613381565b80601f01602080910402602001604051908101604052809291908181526020018280546123e290613381565b801561242f5780601f106124045761010080835404028352916020019161242f565b820191906000526020600020905b81548152906001019060200180831161241257829003601f168201915b5050505050915080805461244290613381565b80601f016020809104026020016040519081016040528092919081815260200182805461246e90613381565b80156124bb5780601f10612490576101008083540402835291602001916124bb565b820191906000526020600020905b81548152906001019060200180831161249e57829003601f168201915b505050505090509450945094509450509193509193565b60008054906101000a900473ffffffffffffffffffffffffffffffffffffffff1673ffffffffffffffffffffffffffffffffffffffff163373ffffffffffffffffffffffffffffffffffffffff1614612560576040517f08c379a000000000000000000000000000000000000000000000000000000000815260040161255790613730565b60405180910390fd5b6000600160008060009054906101000a900473ffffffffffffffffffffffffffffffffffffffff1673ffffffffffffffffffffffffffffffffffffffff1673ffffffffffffffffffffffffffffffffffffffff16815260200190815260200160002082815481106125d4576125d3613750565b5b906000526020600020906004020190506040518060400160405280600881526020017f617070726f76656400000000000000000000000000000000000000000000000081525081600301908161262a91906135ec565b508160008054906101000a900473ffffffffffffffffffffffffffffffffffffffff1673ffffffffffffffffffffffffffffffffffffffff168260000160009054906101000a900473ffffffffffffffffffffffffffffffffffffffff1673ffffffffffffffffffffffffffffffffffffffff167fd9a9c1b40a747e79bd4c1aeabd897bfd5b3679e58fcdcd20dd7af4a8274196bc60405160405180910390a45050565b606060006060806000600360008773ffffffffffffffffffffffffffffffffffffffff1673ffffffffffffffffffffffffffffffffffffffff1681526020019081526020016000209050806000018160010160009054906101000a900460ff16826002018360030183805461274290613381565b80601f016020809104026020016040519081016040528092919081815260200182805461276e90613381565b80156127bb5780601f10612790576101008083540402835291602001916127bb565b820191906000526020600020905b81548152906001019060200180831161279e57829003601f168201915b505050505093508180546127ce90613381565b80601f01602080910402602001604051908101604052809291908181526020018280546127fa90613381565b80156128475780601f1061281c57610100808354040283529160200191612847565b820191906000526020600020905b81548152906001019060200180831161282a57829003601f168201915b5050505050915080805461285a90613381565b80601f016020809104026020016040519081016040528092919081815260200182805461288690613381565b80156128d35780601f106128a8576101008083540402835291602001916128d3565b820191906000526020600020905b8154815290600101906020018083116128b657829003601f168201915b505050505090509450945094509450509193509193565b6040518060a0016040528060608152602001606081526020016060815260200160608152602001600073ffffffffffffffffffffffffffffffffffffffff1681525090565b6000604051905090565b600080fd5b600080fd5b600073ffffffffffffffffffffffffffffffffffffffff82169050919050565b600061296e82612943565b9050919050565b61297e81612963565b811461298957600080fd5b50565b60008135905061299b81612975565b92915050565b6000602082840312156129b7576129b6612939565b5b60006129c58482850161298c565b91505092915050565b600081519050919050565b600082825260208201905092915050565b60005b83811015612a085780820151818401526020810190506129ed565b60008484015250505050565b6000601f19601f8301169050919050565b6000612a30826129ce565b612a3a81856129d9565b9350612a4a8185602086016129ea565b612a5381612a14565b840191505092915050565b600060ff82169050919050565b612a7481612a5e565b82525050565b612a8381612963565b82525050565b60006080820190508181036000830152612aa38187612a25565b9050612ab26020830186612a6b565b8181036040830152612ac48185612a25565b9050612ad36060830184612a7a565b95945050505050565b600080fd5b600080fd5b7f4e487b7100000000000000000000000000000000000000000000000000000000600052604160045260246000fd5b612b1e82612a14565b810181811067ffffffffffffffff82111715612b3d57612b3c612ae6565b5b80604052505050565b6000612b5061292f565b9050612b5c8282612b15565b919050565b600067ffffffffffffffff821115612b7c57612b7b612ae6565b5b612b8582612a14565b9050602081019050919050565b82818337600083830152505050565b6000612bb4612baf84612b61565b612b46565b905082815260208101848484011115612bd057612bcf612ae1565b5b612bdb848285612b92565b509392505050565b600082601f830112612bf857612bf7612adc565b5b8135612c08848260208601612ba1565b91505092915050565b612c1a81612a5e565b8114612c2557600080fd5b50565b600081359050612c3781612c11565b92915050565b600080600060608486031215612c5657612c55612939565b5b600084013567ffffffffffffffff811115612c7457612c7361293e565b5b612c8086828701612be3565b9350506020612c9186828701612c28565b925050604084013567ffffffffffffffff811115612cb257612cb161293e565b5b612cbe86828701612be3565b9150509250925092565b6000819050919050565b612cdb81612cc8565b8114612ce657600080fd5b50565b600081359050612cf881612cd2565b92915050565b600060208284031215612d1457612d13612939565b5b6000612d2284828501612ce9565b91505092915050565b60006060820190508181036000830152612d458186612a25565b9050612d546020830185612a6b565b8181036040830152612d668184612a25565b9050949350505050565b600081519050919050565b600082825260208201905092915050565b6000819050602082019050919050565b600082825260208201905092915050565b6000612db8826129ce565b612dc28185612d9c565b9350612dd28185602086016129ea565b612ddb81612a14565b840191505092915050565b612def81612963565b82525050565b600060a0830160008301518482036000860152612e128282612dad565b91505060208301518482036020860152612e2c8282612dad565b91505060408301518482036040860152612e468282612dad565b91505060608301518482036060860152612e608282612dad565b9150506080830151612e756080860182612de6565b508091505092915050565b6000612e8c8383612df5565b905092915050565b6000602082019050919050565b6000612eac82612d70565b612eb68185612d7b565b935083602082028501612ec885612d8c565b8060005b85811015612f045784840389528151612ee58582612e80565b9450612ef083612e94565b925060208a01995050600181019050612ecc565b50829750879550505050505092915050565b60006020820190508181036000830152612f308184612ea1565b905092915050565b600081519050919050565b600082825260208201905092915050565b6000819050602082019050919050565b6000608083016000830151612f7c6000860182612de6565b5060208301518482036020860152612f948282612dad565b91505060408301518482036040860152612fae8282612dad565b91505060608301518482036060860152612fc88282612dad565b9150508091505092915050565b6000612fe18383612f64565b905092915050565b6000602082019050919050565b600061300182612f38565b61300b8185612f43565b93508360208202850161301d85612f54565b8060005b85811015613059578484038952815161303a8582612fd5565b945061304583612fe9565b925060208a01995050600181019050613021565b50829750879550505050505092915050565b600060208201905081810360008301526130858184612ff6565b905092915050565b600060808201905081810360008301526130a78187612a25565b905081810360208301526130bb8186612a25565b905081810360408301526130cf8185612a25565b905081810360608301526130e38184612a25565b905095945050505050565b6000806040838503121561310557613104612939565b5b600083013567ffffffffffffffff8111156131235761312261293e565b5b61312f85828601612be3565b925050602083013567ffffffffffffffff8111156131505761314f61293e565b5b61315c85828601612be3565b9150509250929050565b600080600080608085870312156131805761317f612939565b5b600085013567ffffffffffffffff81111561319e5761319d61293e565b5b6131aa87828801612be3565b94505060206131bb87828801612c28565b935050604085013567ffffffffffffffff8111156131dc576131db61293e565b5b6131e887828801612be3565b925050606085013567ffffffffffffffff8111156132095761320861293e565b5b61321587828801612be3565b91505092959194509250565b6000608082019050818103600083015261323b8187612a25565b905061324a6020830186612a6b565b818103604083015261325c8185612a25565b905081810360608301526132708184612a25565b905095945050505050565b6000806000806080858703121561329557613294612939565b5b600085013567ffffffffffffffff8111156132b3576132b261293e565b5b6132bf87828801612be3565b945050602085013567ffffffffffffffff8111156132e0576132df61293e565b5b6132ec87828801612be3565b935050604085013567ffffffffffffffff81111561330d5761330c61293e565b5b61331987828801612be3565b925050606085013567ffffffffffffffff81111561333a5761333961293e565b5b61334687828801612be3565b91505092959194509250565b7f4e487b7100000000000000000000000000000000000000000000000000000000600052602260045260246000fd5b6000600282049050600182168061339957607f821691505b6020821081036133ac576133ab613352565b5b50919050565b600081905092915050565b50565b60006133cd6000836133b2565b91506133d8826133bd565b600082019050919050565b60006133ee826133c0565b9150819050919050565b6000613403826129ce565b61340d81856133b2565b935061341d8185602086016129ea565b80840191505092915050565b600061343582846133f8565b915081905092915050565b60008190508160005260206000209050919050565b60006020601f8301049050919050565b600082821b905092915050565b6000600883026134a27fffffffffffffffffffffffffffffffffffffffffffffffffffffffffffffffff82613465565b6134ac8683613465565b95508019841693508086168417925050509392505050565b6000819050919050565b60006134e96134e46134df84612cc8565b6134c4565b612cc8565b9050919050565b6000819050919050565b613503836134ce565b61351761350f826134f0565b848454613472565b825550505050565b600090565b61352c61351f565b6135378184846134fa565b505050565b5b8181101561355b57613550600082613524565b60018101905061353d565b5050565b601f8211156135a05761357181613440565b61357a84613455565b81016020851015613589578190505b61359d61359585613455565b83018261353c565b50505b505050565b600082821c905092915050565b60006135c3600019846008026135a5565b1980831691505092915050565b60006135dc83836135b2565b9150826002028217905092915050565b6135f5826129ce565b67ffffffffffffffff81111561360e5761360d612ae6565b5b6136188254613381565b61362382828561355f565b600060209050601f8311600181146136565760008415613644578287015190505b61364e85826135d0565b8655506136b6565b601f19841661366486613440565b60005b8281101561368c57848901518255600182019150602085019450602081019050613667565b868310156136a957848901516136a5601f8916826135b2565b8355505b6001600288020188555050505b505050505050565b7f4f6e6c79206f776e65722063616e2063616c6c20746869732066756e6374696f60008201527f6e00000000000000000000000000000000000000000000000000000000000000602082015250565b600061371a6021836129d9565b9150613725826136be565b604082019050919050565b600060208201905081810360008301526137498161370d565b9050919050565b7f4e487b7100000000000000000000000000000000000000000000000000000000600052603260045260246000fd5b7f4e487b7100000000000000000000000000000000000000000000000000000000600052601160045260246000fd5b60006137b982612cc8565b91507fffffffffffffffffffffffffffffffffffffffffffffffffffffffffffffffff82036137eb576137ea61377f565b5b600182019050919050565b600060208201905081810360008301526138108184612a25565b90509291505056fea2646970667358221220a6ee1142ef7f62aa2b6fc9c659532d1126f0d057605143330bf9d080827eac5764736f6c63430008110033",
  "immutableReferences": {},
  "source": "// SPDX-License-Identifier: MIT\npragma solidity >=0.4.22 <0.9.0;\n\n//https://ethereum.stackexchange.com/questions/8615/child-contract-vs-struct?newreg=9940955131d740a1a85cef648b771ef3\ncontract HealthBlock {\n    address private owner;\n\n    struct patient {\n        string name;\n        uint8 age;\n        string email;\n        address id;\n    }\n\n    struct hcprovider {\n        string name;\n        string email;\n        string providerAddress;\n        string phone;\n        address id;\n    }\n\n    struct doctor {\n        string name;\n        uint8 age;\n        string email;\n        string specialization;\n        address id;\n    }\n\n    event DoctorRequestRaised(address indexed doctor, string indexed doctorName, string credentialsHash);\n    event RequestApproved(address indexed doctor, address indexed provider, uint256 indexed requestId);\n    event RequestRejected(address indexed doctor, address indexed provider, uint256 indexed requestId);\n\n    struct Request {\n        address doctor;\n        string doctorName;\n        string credentialsHash;\n        string status;\n    }\n    mapping(address => Request[]) private doctorRequests;\n\n   /*\n    * @dev Set contract deployer as owner\n    */\n    constructor() {\n        owner = msg.sender; // 'msg.sender' is sender of current call, contract deployer for a constructor\n    }\n\n    modifier onlyOwner() {\n        require(msg.sender == owner, \"Only owner can call this function\");\n        _;\n    }\n\n    function raiseRequest(string memory doctorName, string memory credentialsHash) public {\n        Request memory request = Request({\n            doctor: msg.sender,\n            doctorName: doctorName,\n            credentialsHash: credentialsHash,\n            status: \"pending\"\n        });\n        doctorRequests[owner].push(request);\n        emit DoctorRequestRaised(msg.sender, doctorName, credentialsHash);\n    }\n\n    function getRequests() public view returns(Request[] memory) {\n        require(msg.sender == owner, \"Only owner can call this function\");\n        return doctorRequests[owner];\n    }\n\n    function getHCProviders() public view returns (hcprovider[] memory) {\n        hcprovider[] memory allProviders = new hcprovider[](address(this).balance);\n        uint256 count = 0;\n        for (uint256 i = 0; i < allProviders.length; i++) {\n            if (hcproviders[msg.sender].id > address(0x0)) {\n                allProviders[count] = hcproviders[msg.sender];\n                count++;\n            }\n        }\n        return allProviders;\n    }\n\n    function rejectRequest(uint256 requestId) public {\n        require(msg.sender == owner, \"Only owner can call this function\");\n        Request storage request = doctorRequests[owner][requestId];\n        request.status = \"rejected\";\n        emit RequestRejected(request.doctor, owner, requestId);\n    }\n\n    function approveRequest(uint256 requestId) public {\n        require(msg.sender == owner, \"Only owner can call this function\");\n        Request storage request = doctorRequests[owner][requestId];\n        request.status = \"approved\";\n        emit RequestApproved(request.doctor, owner, requestId);\n    }\n\n    // event for EVM logging\n    event NPatient(address indexed _from, string indexed _name);\n    event NDoctor(address indexed _from, string indexed _name);\n    event NHCProvider(address indexed _from, string indexed _name);\n    mapping (address => patient) public patients;\n    mapping (address => doctor) internal doctors;\n    mapping (address => hcprovider) internal hcproviders;\n\n    modifier checkHealthCareProvider(address id) {\n        hcprovider storage h = hcproviders[id];\n        require(h.id > address(0x0));//check if HealthCare Provider exists\n        _;\n    }\n\n    modifier checkDoctor(address id) {\n        doctor storage d = doctors[id];\n        require(d.id > address(0x0));//check if doctor exists\n        _;\n    }\n    modifier checkPatient(address id) {\n        patient storage p = patients[id];\n        require(p.id > address(0x0));//check if patient exist\n        _;\n    }\n    modifier checkRequests(address id) {\n        patient storage p = patients[id];\n        require(p.id > address(0x0));//check if patient exist\n        _;\n    }\n\n    function getPatientInfo() public view checkPatient(msg.sender) returns(string memory, uint8, string memory) {\n        patient storage p = patients[msg.sender];\n        return (p.name, p.age, p.email);\n    }  \n    function getPatientInfoAll(address _address) public view returns(string memory, uint8, string memory) {\n        patient storage p = patients[_address];\n        return (p.name, p.age, p.email);\n    }\n    function registerPatient(string memory _name, uint8 _age,string memory _email) public {\n        //patient storage p = patients[msg.sender];\n        require(keccak256(abi.encodePacked(_name)) != keccak256(abi.encodePacked(\"\")));\n        require(keccak256(abi.encodePacked(_email)) != keccak256(abi.encodePacked(\"\")));\n        require((_age > 0) && (_age < 100));\n        patients[msg.sender] = patient({name:_name,age:_age,id:msg.sender,email:_email});\n        emit NPatient(msg.sender, _name);\n    }\n    function getDoctorInfo() public view checkDoctor(msg.sender) returns(string memory, uint8,string memory, string memory) {\n        doctor storage d = doctors[msg.sender];\n        return (d.name, d.age, d.email, d.specialization);\n    }\n    function getDoctorInfoAll(address _address) public view returns(string memory, uint8,string memory, string memory) {\n        doctor storage d = doctors[_address];\n        return (d.name, d.age, d.email, d.specialization);\n    }\n    function registerDoctor(string memory _name, uint8 _age,string memory _email, string memory _specialization) public {\n        doctor storage d = doctors[msg.sender];\n        require(keccak256(abi.encodePacked(_name)) != keccak256(abi.encodePacked(\"\")));\n        require(keccak256(abi.encodePacked(_email)) != keccak256(abi.encodePacked(\"\")));\n        require(keccak256(abi.encodePacked(_specialization)) != keccak256(abi.encodePacked(\"\")));\n        require((_age > 0) && (_age < 100));\n        require(!(d.id > address(0x0)));\n        doctors[msg.sender] = doctor({name:_name,age:_age,id:msg.sender,email:_email, specialization:_specialization});\n        emit NPatient(msg.sender, _name);\n    } \n\n    function getHCProviderInfo() public view checkHealthCareProvider(msg.sender) returns(string memory, string memory, string memory,  string memory) {\n            hcprovider storage h = hcproviders[msg.sender];\n            return (h.name, h.email, h.providerAddress, h.phone);\n    }\n    function getHCProviderInfoAll(address _address) public view returns(string memory, string memory, string memory, string memory) {\n        hcprovider storage h = hcproviders[_address];\n        return (h.name, h.email, h.providerAddress, h.phone);\n    }\n    function registerHCProvider(string memory _name, string memory _email, string memory _address, string memory _phone) public {\n            hcprovider storage h = hcproviders[msg.sender];\n            require(keccak256(abi.encodePacked(_name)) != keccak256(abi.encodePacked(\"\")));\n            require(keccak256(abi.encodePacked(_email)) != keccak256(abi.encodePacked(\"\")));\n            require(keccak256(abi.encodePacked(_address)) != keccak256(abi.encodePacked(\"\")));\n            require(keccak256(abi.encodePacked(_phone)) != keccak256(abi.encodePacked(\"\")));\n            require(!(h.id > address(0x0)));\n            hcproviders[msg.sender] = hcprovider({name:_name, email:_email, providerAddress:_address, phone:_phone, id:msg.sender});\n    } \n}\n",
  "sourcePath": "/Users/aishwaryaravi/Desktop/Patient Portal/HealthBlock/contracts/HealthBlock.sol",
  "compiler": {
    "name": "solc",
    "version": "0.8.17+commit.8df45f5f.Emscripten.clang"
  },
  "schemaVersion": "3.4.10",
  "updatedAt": "2023-04-12T01:06:35.611Z",
  "networkType": "ethereum",
  "devdoc": {
    "kind": "dev",
    "methods": {},
    "version": 1
  },
  "userdoc": {
    "kind": "user",
    "methods": {},
    "version": 1
  }
}