{
  "contractName": "HealthBlock",
  "abi": [
    {
      "inputs": [],
      "stateMutability": "nonpayable",
      "type": "constructor"
    },
    {
      "anonymous": false,
      "inputs": [
        {
          "indexed": true,
          "internalType": "address",
          "name": "doctor",
          "type": "address"
        },
        {
          "indexed": true,
          "internalType": "string",
          "name": "doctorName",
          "type": "string"
        },
        {
          "indexed": false,
          "internalType": "string",
          "name": "credentialsHash",
          "type": "string"
        }
      ],
      "name": "DoctorRequestRaised",
      "type": "event"
    },
    {
      "anonymous": false,
      "inputs": [
        {
          "indexed": true,
          "internalType": "address",
          "name": "_from",
          "type": "address"
        },
        {
          "indexed": true,
          "internalType": "string",
          "name": "_name",
          "type": "string"
        }
      ],
      "name": "NDoctor",
      "type": "event"
    },
    {
      "anonymous": false,
      "inputs": [
        {
          "indexed": true,
          "internalType": "address",
          "name": "_from",
          "type": "address"
        },
        {
          "indexed": true,
          "internalType": "string",
          "name": "_name",
          "type": "string"
        }
      ],
      "name": "NHCProvider",
      "type": "event"
    },
    {
      "anonymous": false,
      "inputs": [
        {
          "indexed": true,
          "internalType": "address",
          "name": "_from",
          "type": "address"
        },
        {
          "indexed": true,
          "internalType": "string",
          "name": "_name",
          "type": "string"
        }
      ],
      "name": "NPatient",
      "type": "event"
    },
    {
      "anonymous": false,
      "inputs": [
        {
          "indexed": true,
          "internalType": "address",
          "name": "doctor",
          "type": "address"
        },
        {
          "indexed": true,
          "internalType": "address",
          "name": "provider",
          "type": "address"
        },
        {
          "indexed": true,
          "internalType": "uint256",
          "name": "requestId",
          "type": "uint256"
        }
      ],
      "name": "RequestApproved",
      "type": "event"
    },
    {
      "anonymous": false,
      "inputs": [
        {
          "indexed": true,
          "internalType": "address",
          "name": "doctor",
          "type": "address"
        },
        {
          "indexed": true,
          "internalType": "address",
          "name": "provider",
          "type": "address"
        },
        {
          "indexed": true,
          "internalType": "uint256",
          "name": "requestId",
          "type": "uint256"
        }
      ],
      "name": "RequestRejected",
      "type": "event"
    },
    {
      "inputs": [
        {
          "internalType": "address",
          "name": "",
          "type": "address"
        }
      ],
      "name": "patients",
      "outputs": [
        {
          "internalType": "string",
          "name": "name",
          "type": "string"
        },
        {
          "internalType": "uint8",
          "name": "age",
          "type": "uint8"
        },
        {
          "internalType": "string",
          "name": "email",
          "type": "string"
        },
        {
          "internalType": "address",
          "name": "id",
          "type": "address"
        }
      ],
      "stateMutability": "view",
      "type": "function",
      "constant": true
    },
    {
      "inputs": [
        {
          "internalType": "string",
          "name": "doctorName",
          "type": "string"
        },
        {
          "internalType": "string",
          "name": "credentialsHash",
          "type": "string"
        }
      ],
      "name": "raiseRequest",
      "outputs": [],
      "stateMutability": "nonpayable",
      "type": "function"
    },
    {
      "inputs": [],
      "name": "getRequests",
      "outputs": [
        {
          "components": [
            {
              "internalType": "address",
              "name": "doctor",
              "type": "address"
            },
            {
              "internalType": "string",
              "name": "doctorName",
              "type": "string"
            },
            {
              "internalType": "string",
              "name": "credentialsHash",
              "type": "string"
            },
            {
              "internalType": "bool",
              "name": "approved",
              "type": "bool"
            }
          ],
          "internalType": "struct HealthBlock.Request[]",
          "name": "",
          "type": "tuple[]"
        }
      ],
      "stateMutability": "view",
      "type": "function",
      "constant": true
    },
    {
      "inputs": [
        {
          "internalType": "uint256",
          "name": "requestId",
          "type": "uint256"
        }
      ],
      "name": "approveRequest",
      "outputs": [],
      "stateMutability": "nonpayable",
      "type": "function"
    },
    {
      "inputs": [
        {
          "internalType": "uint256",
          "name": "requestId",
          "type": "uint256"
        }
      ],
      "name": "rejectRequest",
      "outputs": [],
      "stateMutability": "nonpayable",
      "type": "function"
    },
    {
      "inputs": [],
      "name": "getPatientInfo",
      "outputs": [
        {
          "internalType": "string",
          "name": "",
          "type": "string"
        },
        {
          "internalType": "uint8",
          "name": "",
          "type": "uint8"
        },
        {
          "internalType": "string",
          "name": "",
          "type": "string"
        }
      ],
      "stateMutability": "view",
      "type": "function",
      "constant": true
    },
    {
      "inputs": [
        {
          "internalType": "address",
          "name": "_address",
          "type": "address"
        }
      ],
      "name": "getPatientInfoAll",
      "outputs": [
        {
          "internalType": "string",
          "name": "",
          "type": "string"
        },
        {
          "internalType": "uint8",
          "name": "",
          "type": "uint8"
        },
        {
          "internalType": "string",
          "name": "",
          "type": "string"
        }
      ],
      "stateMutability": "view",
      "type": "function",
      "constant": true
    },
    {
      "inputs": [
        {
          "internalType": "string",
          "name": "_name",
          "type": "string"
        },
        {
          "internalType": "uint8",
          "name": "_age",
          "type": "uint8"
        },
        {
          "internalType": "string",
          "name": "_email",
          "type": "string"
        }
      ],
      "name": "registerPatient",
      "outputs": [],
      "stateMutability": "nonpayable",
      "type": "function"
    },
    {
      "inputs": [],
      "name": "getDoctorInfo",
      "outputs": [
        {
          "internalType": "string",
          "name": "",
          "type": "string"
        },
        {
          "internalType": "uint8",
          "name": "",
          "type": "uint8"
        },
        {
          "internalType": "string",
          "name": "",
          "type": "string"
        },
        {
          "internalType": "string",
          "name": "",
          "type": "string"
        }
      ],
      "stateMutability": "view",
      "type": "function",
      "constant": true
    },
    {
      "inputs": [
        {
          "internalType": "address",
          "name": "_address",
          "type": "address"
        }
      ],
      "name": "getDoctorInfoAll",
      "outputs": [
        {
          "internalType": "string",
          "name": "",
          "type": "string"
        },
        {
          "internalType": "uint8",
          "name": "",
          "type": "uint8"
        },
        {
          "internalType": "string",
          "name": "",
          "type": "string"
        },
        {
          "internalType": "string",
          "name": "",
          "type": "string"
        }
      ],
      "stateMutability": "view",
      "type": "function",
      "constant": true
    },
    {
      "inputs": [
        {
          "internalType": "string",
          "name": "_name",
          "type": "string"
        },
        {
          "internalType": "uint8",
          "name": "_age",
          "type": "uint8"
        },
        {
          "internalType": "string",
          "name": "_email",
          "type": "string"
        },
        {
          "internalType": "string",
          "name": "_specialization",
          "type": "string"
        }
      ],
      "name": "registerDoctor",
      "outputs": [],
      "stateMutability": "nonpayable",
      "type": "function"
    },
    {
      "inputs": [],
      "name": "getHCProviderInfo",
      "outputs": [
        {
          "internalType": "string",
          "name": "",
          "type": "string"
        },
        {
          "internalType": "string",
          "name": "",
          "type": "string"
        },
        {
          "internalType": "string",
          "name": "",
          "type": "string"
        },
        {
          "internalType": "string",
          "name": "",
          "type": "string"
        }
      ],
      "stateMutability": "view",
      "type": "function",
      "constant": true
    },
    {
      "inputs": [
        {
          "internalType": "address",
          "name": "_address",
          "type": "address"
        }
      ],
      "name": "getHCProviderInfoAll",
      "outputs": [
        {
          "internalType": "string",
          "name": "",
          "type": "string"
        },
        {
          "internalType": "string",
          "name": "",
          "type": "string"
        },
        {
          "internalType": "string",
          "name": "",
          "type": "string"
        },
        {
          "internalType": "string",
          "name": "",
          "type": "string"
        }
      ],
      "stateMutability": "view",
      "type": "function",
      "constant": true
    },
    {
      "inputs": [
        {
          "internalType": "string",
          "name": "_name",
          "type": "string"
        },
        {
          "internalType": "string",
          "name": "_email",
          "type": "string"
        },
        {
          "internalType": "string",
          "name": "_address",
          "type": "string"
        },
        {
          "internalType": "string",
          "name": "_phone",
          "type": "string"
        }
      ],
      "name": "registerHCProvider",
      "outputs": [],
      "stateMutability": "nonpayable",
      "type": "function"
    }
  ],
  "bytecode": "0x608060405234801561001057600080fd5b50336000806101000a81548173ffffffffffffffffffffffffffffffffffffffff021916908373ffffffffffffffffffffffffffffffffffffffff160217905550613181806100606000396000f3fe608060405234801561001057600080fd5b50600436106100ea5760003560e01c8063afc3b5c41161008c578063bc4fe40211610066578063bc4fe40214610244578063c5b0aab014610260578063d7d1bbdb14610293578063e1e36ab9146102af576100ea565b8063afc3b5c4146101eb578063b2d258ff14610207578063b380f5c614610223576100ea565b8063326df664116100c8578063326df6641461015a5780638813ce121461017a578063916922c414610198578063a9b467ee146101b9576100ea565b80630869cfbc146100ef5780631c297205146101225780632d7788db1461013e575b600080fd5b6101096004803603810190610104919061243a565b6102e2565b6040516101199493929190612522565b60405180910390f35b61013c600480360381019061013791906126d6565b61044f565b005b61015860048036038101906101539190612797565b610688565b005b61016261088f565b604051610171939291906127c4565b60405180910390f35b610182610ab9565b60405161018f91906129a9565b60405180910390f35b6101a0610d99565b6040516101b094939291906129cb565b60405180910390f35b6101d360048036038101906101ce919061243a565b6110d4565b6040516101e2939291906127c4565b60405180910390f35b61020560048036038101906102009190612a2c565b61125d565b005b610221600480360381019061021c9190612aa4565b611423565b005b61022b611713565b60405161023b9493929190612b5f565b60405180910390f35b61025e60048036038101906102599190612bb9565b6119d1565b005b61027a6004803603810190610275919061243a565b611cef565b60405161028a94939291906129cb565b60405180910390f35b6102ad60048036038101906102a89190612797565b611f88565b005b6102c960048036038101906102c4919061243a565b6121ac565b6040516102d99493929190612b5f565b60405180910390f35b600360205280600052604060002060009150905080600001805461030590612cbf565b80601f016020809104026020016040519081016040528092919081815260200182805461033190612cbf565b801561037e5780601f106103535761010080835404028352916020019161037e565b820191906000526020600020905b81548152906001019060200180831161036157829003601f168201915b5050505050908060010160009054906101000a900460ff16908060020180546103a690612cbf565b80601f01602080910402602001604051908101604052809291908181526020018280546103d290612cbf565b801561041f5780601f106103f45761010080835404028352916020019161041f565b820191906000526020600020905b81548152906001019060200180831161040257829003601f168201915b5050505050908060030160009054906101000a900473ffffffffffffffffffffffffffffffffffffffff16905084565b60405160200161045e90612d21565b60405160208183030381529060405280519060200120836040516020016104859190612d67565b60405160208183030381529060405280519060200120036104a557600080fd5b6040516020016104b490612d21565b60405160208183030381529060405280519060200120816040516020016104db9190612d67565b60405160208183030381529060405280519060200120036104fb57600080fd5b60008260ff16118015610511575060648260ff16105b61051a57600080fd5b60405180608001604052808481526020018360ff1681526020018281526020013373ffffffffffffffffffffffffffffffffffffffff16815250600360003373ffffffffffffffffffffffffffffffffffffffff1673ffffffffffffffffffffffffffffffffffffffff16815260200190815260200160002060008201518160000190816105a89190612f2a565b5060208201518160010160006101000a81548160ff021916908360ff16021790555060408201518160020190816105df9190612f2a565b5060608201518160030160006101000a81548173ffffffffffffffffffffffffffffffffffffffff021916908373ffffffffffffffffffffffffffffffffffffffff160217905550905050826040516106389190612d67565b60405180910390203373ffffffffffffffffffffffffffffffffffffffff167fe3413e34d7cfab2884866aa8dfc64b0c31d51db035044e04a349a1faf6c7d67660405160405180910390a3505050565b60008054906101000a900473ffffffffffffffffffffffffffffffffffffffff1673ffffffffffffffffffffffffffffffffffffffff163373ffffffffffffffffffffffffffffffffffffffff1614610716576040517f08c379a000000000000000000000000000000000000000000000000000000000815260040161070d9061306e565b60405180910390fd5b6000600260008060009054906101000a900473ffffffffffffffffffffffffffffffffffffffff1673ffffffffffffffffffffffffffffffffffffffff1673ffffffffffffffffffffffffffffffffffffffff168152602001908152602001600020828154811061078a5761078961308e565b5b906000526020600020906004020190508060030160009054906101000a900460ff16156107ec576040517f08c379a00000000000000000000000000000000000000000000000000000000081526004016107e390613109565b60405180910390fd5b8160008054906101000a900473ffffffffffffffffffffffffffffffffffffffff1673ffffffffffffffffffffffffffffffffffffffff168260000160009054906101000a900473ffffffffffffffffffffffffffffffffffffffff1673ffffffffffffffffffffffffffffffffffffffff167f4d2b09745b50f68da85b0b25854d46c2b85b43dd6f04ba6f3f503ff878bf4ae560405160405180910390a45050565b606060006060336000600360008373ffffffffffffffffffffffffffffffffffffffff1673ffffffffffffffffffffffffffffffffffffffff1681526020019081526020016000209050600073ffffffffffffffffffffffffffffffffffffffff168160030160009054906101000a900473ffffffffffffffffffffffffffffffffffffffff1673ffffffffffffffffffffffffffffffffffffffff161161093657600080fd5b6000600360003373ffffffffffffffffffffffffffffffffffffffff1673ffffffffffffffffffffffffffffffffffffffff1681526020019081526020016000209050806000018160010160009054906101000a900460ff168260020182805461099f90612cbf565b80601f01602080910402602001604051908101604052809291908181526020018280546109cb90612cbf565b8015610a185780601f106109ed57610100808354040283529160200191610a18565b820191906000526020600020905b8154815290600101906020018083116109fb57829003601f168201915b50505050509250808054610a2b90612cbf565b80601f0160208091040260200160405190810160405280929190818152602001828054610a5790612cbf565b8015610aa45780601f10610a7957610100808354040283529160200191610aa4565b820191906000526020600020905b815481529060010190602001808311610a8757829003601f168201915b50505050509050955095509550505050909192565b606060008054906101000a900473ffffffffffffffffffffffffffffffffffffffff1673ffffffffffffffffffffffffffffffffffffffff163373ffffffffffffffffffffffffffffffffffffffff1614610b49576040517f08c379a0000000000000000000000000000000000000000000000000000000008152600401610b409061306e565b60405180910390fd5b600260008060009054906101000a900473ffffffffffffffffffffffffffffffffffffffff1673ffffffffffffffffffffffffffffffffffffffff1673ffffffffffffffffffffffffffffffffffffffff168152602001908152602001600020805480602002602001604051908101604052809291908181526020016000905b82821015610d9057838290600052602060002090600402016040518060800160405290816000820160009054906101000a900473ffffffffffffffffffffffffffffffffffffffff1673ffffffffffffffffffffffffffffffffffffffff1673ffffffffffffffffffffffffffffffffffffffff168152602001600182018054610c5290612cbf565b80601f0160208091040260200160405190810160405280929190818152602001828054610c7e90612cbf565b8015610ccb5780601f10610ca057610100808354040283529160200191610ccb565b820191906000526020600020905b815481529060010190602001808311610cae57829003601f168201915b50505050508152602001600282018054610ce490612cbf565b80601f0160208091040260200160405190810160405280929190818152602001828054610d1090612cbf565b8015610d5d5780601f10610d3257610100808354040283529160200191610d5d565b820191906000526020600020905b815481529060010190602001808311610d4057829003601f168201915b505050505081526020016003820160009054906101000a900460ff16151515158152505081526020019060010190610bc9565b50505050905090565b606080606080336000600560008373ffffffffffffffffffffffffffffffffffffffff1673ffffffffffffffffffffffffffffffffffffffff1681526020019081526020016000209050600073ffffffffffffffffffffffffffffffffffffffff168160040160009054906101000a900473ffffffffffffffffffffffffffffffffffffffff1673ffffffffffffffffffffffffffffffffffffffff1611610e4057600080fd5b6000600560003373ffffffffffffffffffffffffffffffffffffffff1673ffffffffffffffffffffffffffffffffffffffff168152602001908152602001600020905080600001816001018260020183600301838054610e9f90612cbf565b80601f0160208091040260200160405190810160405280929190818152602001828054610ecb90612cbf565b8015610f185780601f10610eed57610100808354040283529160200191610f18565b820191906000526020600020905b815481529060010190602001808311610efb57829003601f168201915b50505050509350828054610f2b90612cbf565b80601f0160208091040260200160405190810160405280929190818152602001828054610f5790612cbf565b8015610fa45780601f10610f7957610100808354040283529160200191610fa4565b820191906000526020600020905b815481529060010190602001808311610f8757829003601f168201915b50505050509250818054610fb790612cbf565b80601f0160208091040260200160405190810160405280929190818152602001828054610fe390612cbf565b80156110305780601f1061100557610100808354040283529160200191611030565b820191906000526020600020905b81548152906001019060200180831161101357829003601f168201915b5050505050915080805461104390612cbf565b80601f016020809104026020016040519081016040528092919081815260200182805461106f90612cbf565b80156110bc5780601f10611091576101008083540402835291602001916110bc565b820191906000526020600020905b81548152906001019060200180831161109f57829003601f168201915b50505050509050965096509650965050505090919293565b6060600060606000600360008673ffffffffffffffffffffffffffffffffffffffff1673ffffffffffffffffffffffffffffffffffffffff1681526020019081526020016000209050806000018160010160009054906101000a900460ff168260020182805461114390612cbf565b80601f016020809104026020016040519081016040528092919081815260200182805461116f90612cbf565b80156111bc5780601f10611191576101008083540402835291602001916111bc565b820191906000526020600020905b81548152906001019060200180831161119f57829003601f168201915b505050505092508080546111cf90612cbf565b80601f01602080910402602001604051908101604052809291908181526020018280546111fb90612cbf565b80156112485780601f1061121d57610100808354040283529160200191611248565b820191906000526020600020905b81548152906001019060200180831161122b57829003601f168201915b50505050509050935093509350509193909250565b600060405180608001604052803373ffffffffffffffffffffffffffffffffffffffff168152602001848152602001838152602001600015158152509050600260008060009054906101000a900473ffffffffffffffffffffffffffffffffffffffff1673ffffffffffffffffffffffffffffffffffffffff1673ffffffffffffffffffffffffffffffffffffffff16815260200190815260200160002081908060018154018082558091505060019003906000526020600020906004020160009091909190915060008201518160000160006101000a81548173ffffffffffffffffffffffffffffffffffffffff021916908373ffffffffffffffffffffffffffffffffffffffff16021790555060208201518160010190816113819190612f2a565b5060408201518160020190816113979190612f2a565b5060608201518160030160006101000a81548160ff0219169083151502179055505050826040516113c89190612d67565b60405180910390203373ffffffffffffffffffffffffffffffffffffffff167f13bea7f2b146e27ade33081397e247a39c6fa801e1c40c9d03fd9d808e3bdfcd846040516114169190613129565b60405180910390a3505050565b6000600460003373ffffffffffffffffffffffffffffffffffffffff1673ffffffffffffffffffffffffffffffffffffffff168152602001908152602001600020905060405160200161147590612d21565b604051602081830303815290604052805190602001208560405160200161149c9190612d67565b60405160208183030381529060405280519060200120036114bc57600080fd5b6040516020016114cb90612d21565b60405160208183030381529060405280519060200120836040516020016114f29190612d67565b604051602081830303815290604052805190602001200361151257600080fd5b60405160200161152190612d21565b60405160208183030381529060405280519060200120826040516020016115489190612d67565b604051602081830303815290604052805190602001200361156857600080fd5b60008460ff1611801561157e575060648460ff16105b61158757600080fd5b6040518060a001604052808681526020018560ff1681526020018481526020018381526020013373ffffffffffffffffffffffffffffffffffffffff16815250600460003373ffffffffffffffffffffffffffffffffffffffff1673ffffffffffffffffffffffffffffffffffffffff168152602001908152602001600020600082015181600001908161161b9190612f2a565b5060208201518160010160006101000a81548160ff021916908360ff16021790555060408201518160020190816116529190612f2a565b5060608201518160030190816116689190612f2a565b5060808201518160040160006101000a81548173ffffffffffffffffffffffffffffffffffffffff021916908373ffffffffffffffffffffffffffffffffffffffff160217905550905050846040516116c19190612d67565b60405180910390203373ffffffffffffffffffffffffffffffffffffffff167fe3413e34d7cfab2884866aa8dfc64b0c31d51db035044e04a349a1faf6c7d67660405160405180910390a35050505050565b60606000606080336000600460008373ffffffffffffffffffffffffffffffffffffffff1673ffffffffffffffffffffffffffffffffffffffff1681526020019081526020016000209050600073ffffffffffffffffffffffffffffffffffffffff168160040160009054906101000a900473ffffffffffffffffffffffffffffffffffffffff1673ffffffffffffffffffffffffffffffffffffffff16116117bb57600080fd5b6000600460003373ffffffffffffffffffffffffffffffffffffffff1673ffffffffffffffffffffffffffffffffffffffff1681526020019081526020016000209050806000018160010160009054906101000a900460ff16826002018360030183805461182890612cbf565b80601f016020809104026020016040519081016040528092919081815260200182805461185490612cbf565b80156118a15780601f10611876576101008083540402835291602001916118a1565b820191906000526020600020905b81548152906001019060200180831161188457829003601f168201915b505050505093508180546118b490612cbf565b80601f01602080910402602001604051908101604052809291908181526020018280546118e090612cbf565b801561192d5780601f106119025761010080835404028352916020019161192d565b820191906000526020600020905b81548152906001019060200180831161191057829003601f168201915b5050505050915080805461194090612cbf565b80601f016020809104026020016040519081016040528092919081815260200182805461196c90612cbf565b80156119b95780601f1061198e576101008083540402835291602001916119b9565b820191906000526020600020905b81548152906001019060200180831161199c57829003601f168201915b50505050509050965096509650965050505090919293565b6000600560003373ffffffffffffffffffffffffffffffffffffffff1673ffffffffffffffffffffffffffffffffffffffff1681526020019081526020016000209050604051602001611a2390612d21565b6040516020818303038152906040528051906020012085604051602001611a4a9190612d67565b6040516020818303038152906040528051906020012003611a6a57600080fd5b604051602001611a7990612d21565b6040516020818303038152906040528051906020012084604051602001611aa09190612d67565b6040516020818303038152906040528051906020012003611ac057600080fd5b604051602001611acf90612d21565b6040516020818303038152906040528051906020012083604051602001611af69190612d67565b6040516020818303038152906040528051906020012003611b1657600080fd5b604051602001611b2590612d21565b6040516020818303038152906040528051906020012082604051602001611b4c9190612d67565b6040516020818303038152906040528051906020012003611b6c57600080fd5b600073ffffffffffffffffffffffffffffffffffffffff168160040160009054906101000a900473ffffffffffffffffffffffffffffffffffffffff1673ffffffffffffffffffffffffffffffffffffffff161115611bca57600080fd5b6040518060a001604052808681526020018581526020018481526020018381526020013373ffffffffffffffffffffffffffffffffffffffff16815250600560003373ffffffffffffffffffffffffffffffffffffffff1673ffffffffffffffffffffffffffffffffffffffff1681526020019081526020016000206000820151816000019081611c5b9190612f2a565b506020820151816001019081611c719190612f2a565b506040820151816002019081611c879190612f2a565b506060820151816003019081611c9d9190612f2a565b5060808201518160040160006101000a81548173ffffffffffffffffffffffffffffffffffffffff021916908373ffffffffffffffffffffffffffffffffffffffff1602179055509050505050505050565b6060806060806000600560008773ffffffffffffffffffffffffffffffffffffffff1673ffffffffffffffffffffffffffffffffffffffff168152602001908152602001600020905080600001816001018260020183600301838054611d5490612cbf565b80601f0160208091040260200160405190810160405280929190818152602001828054611d8090612cbf565b8015611dcd5780601f10611da257610100808354040283529160200191611dcd565b820191906000526020600020905b815481529060010190602001808311611db057829003601f168201915b50505050509350828054611de090612cbf565b80601f0160208091040260200160405190810160405280929190818152602001828054611e0c90612cbf565b8015611e595780601f10611e2e57610100808354040283529160200191611e59565b820191906000526020600020905b815481529060010190602001808311611e3c57829003601f168201915b50505050509250818054611e6c90612cbf565b80601f0160208091040260200160405190810160405280929190818152602001828054611e9890612cbf565b8015611ee55780601f10611eba57610100808354040283529160200191611ee5565b820191906000526020600020905b815481529060010190602001808311611ec857829003601f168201915b50505050509150808054611ef890612cbf565b80601f0160208091040260200160405190810160405280929190818152602001828054611f2490612cbf565b8015611f715780601f10611f4657610100808354040283529160200191611f71565b820191906000526020600020905b815481529060010190602001808311611f5457829003601f168201915b505050505090509450945094509450509193509193565b60008054906101000a900473ffffffffffffffffffffffffffffffffffffffff1673ffffffffffffffffffffffffffffffffffffffff163373ffffffffffffffffffffffffffffffffffffffff1614612016576040517f08c379a000000000000000000000000000000000000000000000000000000000815260040161200d9061306e565b60405180910390fd5b6000600260008060009054906101000a900473ffffffffffffffffffffffffffffffffffffffff1673ffffffffffffffffffffffffffffffffffffffff1673ffffffffffffffffffffffffffffffffffffffff168152602001908152602001600020828154811061208a5761208961308e565b5b906000526020600020906004020190508060030160009054906101000a900460ff16156120ec576040517f08c379a00000000000000000000000000000000000000000000000000000000081526004016120e390613109565b60405180910390fd5b60018160030160006101000a81548160ff0219169083151502179055508160008054906101000a900473ffffffffffffffffffffffffffffffffffffffff1673ffffffffffffffffffffffffffffffffffffffff168260000160009054906101000a900473ffffffffffffffffffffffffffffffffffffffff1673ffffffffffffffffffffffffffffffffffffffff167fd9a9c1b40a747e79bd4c1aeabd897bfd5b3679e58fcdcd20dd7af4a8274196bc60405160405180910390a45050565b606060006060806000600460008773ffffffffffffffffffffffffffffffffffffffff1673ffffffffffffffffffffffffffffffffffffffff1681526020019081526020016000209050806000018160010160009054906101000a900460ff16826002018360030183805461222090612cbf565b80601f016020809104026020016040519081016040528092919081815260200182805461224c90612cbf565b80156122995780601f1061226e57610100808354040283529160200191612299565b820191906000526020600020905b81548152906001019060200180831161227c57829003601f168201915b505050505093508180546122ac90612cbf565b80601f01602080910402602001604051908101604052809291908181526020018280546122d890612cbf565b80156123255780601f106122fa57610100808354040283529160200191612325565b820191906000526020600020905b81548152906001019060200180831161230857829003601f168201915b5050505050915080805461233890612cbf565b80601f016020809104026020016040519081016040528092919081815260200182805461236490612cbf565b80156123b15780601f10612386576101008083540402835291602001916123b1565b820191906000526020600020905b81548152906001019060200180831161239457829003601f168201915b505050505090509450945094509450509193509193565b6000604051905090565b600080fd5b600080fd5b600073ffffffffffffffffffffffffffffffffffffffff82169050919050565b6000612407826123dc565b9050919050565b612417816123fc565b811461242257600080fd5b50565b6000813590506124348161240e565b92915050565b6000602082840312156124505761244f6123d2565b5b600061245e84828501612425565b91505092915050565b600081519050919050565b600082825260208201905092915050565b60005b838110156124a1578082015181840152602081019050612486565b60008484015250505050565b6000601f19601f8301169050919050565b60006124c982612467565b6124d38185612472565b93506124e3818560208601612483565b6124ec816124ad565b840191505092915050565b600060ff82169050919050565b61250d816124f7565b82525050565b61251c816123fc565b82525050565b6000608082019050818103600083015261253c81876124be565b905061254b6020830186612504565b818103604083015261255d81856124be565b905061256c6060830184612513565b95945050505050565b600080fd5b600080fd5b7f4e487b7100000000000000000000000000000000000000000000000000000000600052604160045260246000fd5b6125b7826124ad565b810181811067ffffffffffffffff821117156125d6576125d561257f565b5b80604052505050565b60006125e96123c8565b90506125f582826125ae565b919050565b600067ffffffffffffffff8211156126155761261461257f565b5b61261e826124ad565b9050602081019050919050565b82818337600083830152505050565b600061264d612648846125fa565b6125df565b9050828152602081018484840111156126695761266861257a565b5b61267484828561262b565b509392505050565b600082601f83011261269157612690612575565b5b81356126a184826020860161263a565b91505092915050565b6126b3816124f7565b81146126be57600080fd5b50565b6000813590506126d0816126aa565b92915050565b6000806000606084860312156126ef576126ee6123d2565b5b600084013567ffffffffffffffff81111561270d5761270c6123d7565b5b6127198682870161267c565b935050602061272a868287016126c1565b925050604084013567ffffffffffffffff81111561274b5761274a6123d7565b5b6127578682870161267c565b9150509250925092565b6000819050919050565b61277481612761565b811461277f57600080fd5b50565b6000813590506127918161276b565b92915050565b6000602082840312156127ad576127ac6123d2565b5b60006127bb84828501612782565b91505092915050565b600060608201905081810360008301526127de81866124be565b90506127ed6020830185612504565b81810360408301526127ff81846124be565b9050949350505050565b600081519050919050565b600082825260208201905092915050565b6000819050602082019050919050565b61283e816123fc565b82525050565b600082825260208201905092915050565b600061286082612467565b61286a8185612844565b935061287a818560208601612483565b612883816124ad565b840191505092915050565b60008115159050919050565b6128a38161288e565b82525050565b60006080830160008301516128c16000860182612835565b50602083015184820360208601526128d98282612855565b915050604083015184820360408601526128f38282612855565b9150506060830151612908606086018261289a565b508091505092915050565b600061291f83836128a9565b905092915050565b6000602082019050919050565b600061293f82612809565b6129498185612814565b93508360208202850161295b85612825565b8060005b8581101561299757848403895281516129788582612913565b945061298383612927565b925060208a0199505060018101905061295f565b50829750879550505050505092915050565b600060208201905081810360008301526129c38184612934565b905092915050565b600060808201905081810360008301526129e581876124be565b905081810360208301526129f981866124be565b90508181036040830152612a0d81856124be565b90508181036060830152612a2181846124be565b905095945050505050565b60008060408385031215612a4357612a426123d2565b5b600083013567ffffffffffffffff811115612a6157612a606123d7565b5b612a6d8582860161267c565b925050602083013567ffffffffffffffff811115612a8e57612a8d6123d7565b5b612a9a8582860161267c565b9150509250929050565b60008060008060808587031215612abe57612abd6123d2565b5b600085013567ffffffffffffffff811115612adc57612adb6123d7565b5b612ae88782880161267c565b9450506020612af9878288016126c1565b935050604085013567ffffffffffffffff811115612b1a57612b196123d7565b5b612b268782880161267c565b925050606085013567ffffffffffffffff811115612b4757612b466123d7565b5b612b538782880161267c565b91505092959194509250565b60006080820190508181036000830152612b7981876124be565b9050612b886020830186612504565b8181036040830152612b9a81856124be565b90508181036060830152612bae81846124be565b905095945050505050565b60008060008060808587031215612bd357612bd26123d2565b5b600085013567ffffffffffffffff811115612bf157612bf06123d7565b5b612bfd8782880161267c565b945050602085013567ffffffffffffffff811115612c1e57612c1d6123d7565b5b612c2a8782880161267c565b935050604085013567ffffffffffffffff811115612c4b57612c4a6123d7565b5b612c578782880161267c565b925050606085013567ffffffffffffffff811115612c7857612c776123d7565b5b612c848782880161267c565b91505092959194509250565b7f4e487b7100000000000000000000000000000000000000000000000000000000600052602260045260246000fd5b60006002820490506001821680612cd757607f821691505b602082108103612cea57612ce9612c90565b5b50919050565b600081905092915050565b50565b6000612d0b600083612cf0565b9150612d1682612cfb565b600082019050919050565b6000612d2c82612cfe565b9150819050919050565b6000612d4182612467565b612d4b8185612cf0565b9350612d5b818560208601612483565b80840191505092915050565b6000612d738284612d36565b915081905092915050565b60008190508160005260206000209050919050565b60006020601f8301049050919050565b600082821b905092915050565b600060088302612de07fffffffffffffffffffffffffffffffffffffffffffffffffffffffffffffffff82612da3565b612dea8683612da3565b95508019841693508086168417925050509392505050565b6000819050919050565b6000612e27612e22612e1d84612761565b612e02565b612761565b9050919050565b6000819050919050565b612e4183612e0c565b612e55612e4d82612e2e565b848454612db0565b825550505050565b600090565b612e6a612e5d565b612e75818484612e38565b505050565b5b81811015612e9957612e8e600082612e62565b600181019050612e7b565b5050565b601f821115612ede57612eaf81612d7e565b612eb884612d93565b81016020851015612ec7578190505b612edb612ed385612d93565b830182612e7a565b50505b505050565b600082821c905092915050565b6000612f0160001984600802612ee3565b1980831691505092915050565b6000612f1a8383612ef0565b9150826002028217905092915050565b612f3382612467565b67ffffffffffffffff811115612f4c57612f4b61257f565b5b612f568254612cbf565b612f61828285612e9d565b600060209050601f831160018114612f945760008415612f82578287015190505b612f8c8582612f0e565b865550612ff4565b601f198416612fa286612d7e565b60005b82811015612fca57848901518255600182019150602085019450602081019050612fa5565b86831015612fe75784890151612fe3601f891682612ef0565b8355505b6001600288020188555050505b505050505050565b7f4f6e6c792061646d696e2063616e2063616c6c20746869732066756e6374696f60008201527f6e00000000000000000000000000000000000000000000000000000000000000602082015250565b6000613058602183612472565b915061306382612ffc565b604082019050919050565b600060208201905081810360008301526130878161304b565b9050919050565b7f4e487b7100000000000000000000000000000000000000000000000000000000600052603260045260246000fd5b7f5265717565737420697320616c726561647920617070726f7665640000000000600082015250565b60006130f3601b83612472565b91506130fe826130bd565b602082019050919050565b60006020820190508181036000830152613122816130e6565b9050919050565b6000602082019050818103600083015261314381846124be565b90509291505056fea26469706673582212203bb6b96946065f009298c12f094e849be23f534010f72141e1565cff4fe75c5664736f6c63430008110033",
  "immutableReferences": {},
  "source": "// SPDX-License-Identifier: MIT\npragma solidity >=0.4.22 <0.9.0;\n\n//https://ethereum.stackexchange.com/questions/8615/child-contract-vs-struct?newreg=9940955131d740a1a85cef648b771ef3\ncontract HealthBlock {\n    address private admin;\n\n    struct patient {\n        string name;\n        uint8 age;\n        string email;\n        address id;\n    }\n\n    struct hcprovider {\n        string name;\n        string email;\n        string providerAddress;\n        string phone;\n        address id;\n    }\n\n    struct doctor {\n        string name;\n        uint8 age;\n        string email;\n        string specialization;\n        address id;\n    }\n\n    event DoctorRequestRaised(address indexed doctor, string indexed doctorName, string credentialsHash);\n    event RequestApproved(address indexed doctor, address indexed provider, uint256 indexed requestId);\n    event RequestRejected(address indexed doctor, address indexed provider, uint256 indexed requestId);\n\n    struct Request {\n        address doctor;\n        string doctorName;\n        string credentialsHash;\n        bool approved;\n    }\n    mapping(address => bool) private isDoctorVerified;\n    mapping(address => Request[]) private doctorRequests;\n\n   /*\n    * @dev Set contract deployer as owner\n    */\n    constructor() {\n        admin = msg.sender; // 'msg.sender' is sender of current call, contract deployer for a constructor\n    }\n\n    modifier onlyAdmin() {\n        require(msg.sender == admin, \"Only admin can call this function\");\n        _;\n    }\n\n    // function verifyDoctor(address doctor) public onlyAdmin {\n    //     isDoctorVerified[doctor] = true;\n    // }\n\n    function raiseRequest(string memory doctorName, string memory credentialsHash) public {\n        //require(isDoctorVerified[msg.sender], \"Only verified doctors can raise request\");\n        Request memory request = Request({\n            doctor: msg.sender,\n            doctorName: doctorName,\n            credentialsHash: credentialsHash,\n            approved: false\n        });\n        doctorRequests[admin].push(request);\n        emit DoctorRequestRaised(msg.sender, doctorName, credentialsHash);\n    }\n\n    function getRequests() public view returns(Request[] memory) {\n        require(msg.sender == admin, \"Only admin can call this function\");\n        return doctorRequests[admin];\n    }\n\n    function approveRequest(uint256 requestId) public {\n        require(msg.sender == admin, \"Only admin can call this function\");\n        Request storage request = doctorRequests[admin][requestId];\n        require(!request.approved, \"Request is already approved\");\n        request.approved = true;\n        emit RequestApproved(request.doctor, admin, requestId);\n    }\n\n    function rejectRequest(uint256 requestId) public {\n        require(msg.sender == admin, \"Only admin can call this function\");\n        Request storage request = doctorRequests[admin][requestId];\n        require(!request.approved, \"Request is already approved\");\n        emit RequestRejected(request.doctor, admin, requestId);\n    }\n\n    // event for EVM logging\n    event NPatient(address indexed _from, string indexed _name);\n    event NDoctor(address indexed _from, string indexed _name);\n    event NHCProvider(address indexed _from, string indexed _name);\n    mapping (address => patient) public patients;\n    mapping (address => doctor) internal doctors;\n    mapping (address => hcprovider) internal hcproviders;\n\n    modifier checkHealthCareProvider(address id) {\n            hcprovider storage h = hcproviders[id];\n            require(h.id > address(0x0));//check if HealthCare Provider exists\n            _;\n    }\n\n    modifier checkDoctor(address id) {\n        doctor storage d = doctors[id];\n        require(d.id > address(0x0));//check if doctor exists\n        _;\n    }\n    \n    modifier checkPatient(address id) {\n        patient storage p = patients[id];\n        require(p.id > address(0x0));//check if patient exist\n        _;\n    }\n    modifier checkRequests(address id) {\n        patient storage p = patients[id];\n        require(p.id > address(0x0));//check if patient exist\n        _;\n    }\n    function getPatientInfo() public view checkPatient(msg.sender) returns(string memory, uint8, string memory) {\n        patient storage p = patients[msg.sender];\n        return (p.name, p.age, p.email);\n    }  \n    function getPatientInfoAll(address _address) public view returns(string memory, uint8, string memory) {\n        patient storage p = patients[_address];\n        return (p.name, p.age, p.email);\n    }\n    function registerPatient(string memory _name, uint8 _age,string memory _email) public {\n        //patient storage p = patients[msg.sender];\n        require(keccak256(abi.encodePacked(_name)) != keccak256(abi.encodePacked(\"\")));\n        require(keccak256(abi.encodePacked(_email)) != keccak256(abi.encodePacked(\"\")));\n        require((_age > 0) && (_age < 100));\n        patients[msg.sender] = patient({name:_name,age:_age,id:msg.sender,email:_email});\n        emit NPatient(msg.sender, _name);\n    }\n    function getDoctorInfo() public view checkDoctor(msg.sender) returns(string memory, uint8,string memory, string memory) {\n        doctor storage d = doctors[msg.sender];\n        return (d.name, d.age, d.email, d.specialization);\n    }\n    function getDoctorInfoAll(address _address) public view returns(string memory, uint8,string memory, string memory) {\n        doctor storage d = doctors[_address];\n        return (d.name, d.age, d.email, d.specialization);\n    }\n    function registerDoctor(string memory _name, uint8 _age,string memory _email, string memory _specialization) public {\n        doctor storage d = doctors[msg.sender];\n        require(keccak256(abi.encodePacked(_name)) != keccak256(abi.encodePacked(\"\")));\n        require(keccak256(abi.encodePacked(_email)) != keccak256(abi.encodePacked(\"\")));\n        require(keccak256(abi.encodePacked(_specialization)) != keccak256(abi.encodePacked(\"\")));\n        require((_age > 0) && (_age < 100));\n        // require(!(d.id > address(0x0)));\n        doctors[msg.sender] = doctor({name:_name,age:_age,id:msg.sender,email:_email, specialization:_specialization});\n        emit NPatient(msg.sender, _name);\n    } \n    function getHCProviderInfo() public view checkHealthCareProvider(msg.sender) returns(string memory, string memory, string memory,  string memory) {\n            hcprovider storage h = hcproviders[msg.sender];\n            return (h.name, h.email, h.providerAddress, h.phone);\n    }\n    function getHCProviderInfoAll(address _address) public view returns(string memory, string memory, string memory, string memory) {\n        hcprovider storage h = hcproviders[_address];\n        return (h.name, h.email, h.providerAddress, h.phone);\n    }\n    function registerHCProvider(string memory _name, string memory _email, string memory _address, string memory _phone) public {\n            hcprovider storage h = hcproviders[msg.sender];\n            require(keccak256(abi.encodePacked(_name)) != keccak256(abi.encodePacked(\"\")));\n            require(keccak256(abi.encodePacked(_email)) != keccak256(abi.encodePacked(\"\")));\n            require(keccak256(abi.encodePacked(_address)) != keccak256(abi.encodePacked(\"\")));\n            require(keccak256(abi.encodePacked(_phone)) != keccak256(abi.encodePacked(\"\")));\n            require(!(h.id > address(0x0)));\n            hcproviders[msg.sender] = hcprovider({name:_name, email:_email, providerAddress:_address, phone:_phone, id:msg.sender});\n    } \n}\n",
  "sourcePath": "/Users/aishwaryaravi/Desktop/Patient Portal/HealthBlock/contracts/HealthBlock.sol",
  "compiler": {
    "name": "solc",
    "version": "0.8.17+commit.8df45f5f.Emscripten.clang"
  },
  "schemaVersion": "3.4.10",
  "updatedAt": "2023-03-19T22:50:06.878Z",
  "networkType": "ethereum",
  "devdoc": {
    "kind": "dev",
    "methods": {},
    "version": 1
  },
  "userdoc": {
    "kind": "user",
    "methods": {},
    "version": 1
  }
}