{
  "contractName": "DoctorHealthBlock",
  "abi": [
    {
      "inputs": [],
      "payable": false,
      "stateMutability": "nonpayable",
      "type": "constructor"
    },
    {
      "constant": true,
      "inputs": [],
      "name": "getDoctorInfo",
      "outputs": [
        {
          "name": "",
          "type": "string"
        },
        {
          "name": "",
          "type": "uint8"
        },
        {
          "name": "",
          "type": "string"
        },
        {
          "name": "",
          "type": "string"
        }
      ],
      "payable": false,
      "stateMutability": "view",
      "type": "function"
    },
    {
      "constant": false,
      "inputs": [
        {
          "name": "_name",
          "type": "string"
        },
        {
          "name": "_age",
          "type": "uint8"
        },
        {
          "name": "_email",
          "type": "string"
        },
        {
          "name": "_specialization",
          "type": "string"
        }
      ],
      "name": "registerDoctor",
      "outputs": [],
      "payable": false,
      "stateMutability": "nonpayable",
      "type": "function"
    }
  ],
  "bytecode": "0x608060405234801561001057600080fd5b50336000806101000a81548173ffffffffffffffffffffffffffffffffffffffff021916908373ffffffffffffffffffffffffffffffffffffffff160217905550610cb9806100606000396000f30060806040526004361061004c576000357c0100000000000000000000000000000000000000000000000000000000900463ffffffff168063b2d258ff14610051578063b380f5c614610153575b600080fd5b34801561005d57600080fd5b50610151600480360381019080803590602001908201803590602001908080601f0160208091040260200160405190810160405280939291908181526020018383808284378201915050505050509192919290803560ff169060200190929190803590602001908201803590602001908080601f0160208091040260200160405190810160405280939291908181526020018383808284378201915050505050509192919290803590602001908201803590602001908080601f01602080910402602001604051908101604052809392919081815260200183838082843782019150505050505091929192905050506102c8565b005b34801561015f57600080fd5b506101686108f8565b60405180806020018560ff1660ff1681526020018060200180602001848103845288818151815260200191508051906020019080838360005b838110156101bc5780820151818401526020810190506101a1565b50505050905090810190601f1680156101e95780820380516001836020036101000a031916815260200191505b50848103835286818151815260200191508051906020019080838360005b83811015610222578082015181840152602081019050610207565b50505050905090810190601f16801561024f5780820380516001836020036101000a031916815260200191505b50848103825285818151815260200191508051906020019080838360005b8381101561028857808201518184015260208101905061026d565b50505050905090810190601f1680156102b55780820380516001836020036101000a031916815260200191505b5097505050505050505060405180910390f35b6000600160003373ffffffffffffffffffffffffffffffffffffffff1673ffffffffffffffffffffffffffffffffffffffff16815260200190815260200160002090506040516020018060000190506040516020818303038152906040526040518082805190602001908083835b60208310151561035b5780518252602082019150602081019050602083039250610336565b6001836020036101000a038019825116818451168082178552505050505050905001915050604051809103902060001916856040516020018082805190602001908083835b6020831015156103c557805182526020820191506020810190506020830392506103a0565b6001836020036101000a0380198251168184511680821785525050505050509050019150506040516020818303038152906040526040518082805190602001908083835b60208310151561042e5780518252602082019150602081019050602083039250610409565b6001836020036101000a0380198251168184511680821785525050505050509050019150506040518091039020600019161415151561046c57600080fd5b6040516020018060000190506040516020818303038152906040526040518082805190602001908083835b6020831015156104bc5780518252602082019150602081019050602083039250610497565b6001836020036101000a038019825116818451168082178552505050505050905001915050604051809103902060001916836040516020018082805190602001908083835b6020831015156105265780518252602082019150602081019050602083039250610501565b6001836020036101000a0380198251168184511680821785525050505050509050019150506040516020818303038152906040526040518082805190602001908083835b60208310151561058f578051825260208201915060208101905060208303925061056a565b6001836020036101000a038019825116818451168082178552505050505050905001915050604051809103902060001916141515156105cd57600080fd5b6040516020018060000190506040516020818303038152906040526040518082805190602001908083835b60208310151561061d57805182526020820191506020810190506020830392506105f8565b6001836020036101000a038019825116818451168082178552505050505050905001915050604051809103902060001916826040516020018082805190602001908083835b6020831015156106875780518252602082019150602081019050602083039250610662565b6001836020036101000a0380198251168184511680821785525050505050509050019150506040516020818303038152906040526040518082805190602001908083835b6020831015156106f057805182526020820191506020810190506020830392506106cb565b6001836020036101000a0380198251168184511680821785525050505050509050019150506040518091039020600019161415151561072e57600080fd5b60008460ff16118015610744575060648460ff16105b151561074f57600080fd5b600073ffffffffffffffffffffffffffffffffffffffff168160040160009054906101000a900473ffffffffffffffffffffffffffffffffffffffff1673ffffffffffffffffffffffffffffffffffffffff16111515156107af57600080fd5b60a0604051908101604052808681526020018560ff1681526020018481526020018381526020013373ffffffffffffffffffffffffffffffffffffffff16815250600160003373ffffffffffffffffffffffffffffffffffffffff1673ffffffffffffffffffffffffffffffffffffffff168152602001908152602001600020600082015181600001908051906020019061084b929190610be8565b5060208201518160010160006101000a81548160ff021916908360ff1602179055506040820151816002019080519060200190610889929190610be8565b5060608201518160030190805190602001906108a6929190610be8565b5060808201518160040160006101000a81548173ffffffffffffffffffffffffffffffffffffffff021916908373ffffffffffffffffffffffffffffffffffffffff1602179055509050505050505050565b606060006060806000336000600160008373ffffffffffffffffffffffffffffffffffffffff1673ffffffffffffffffffffffffffffffffffffffff1681526020019081526020016000209050600073ffffffffffffffffffffffffffffffffffffffff168160040160009054906101000a900473ffffffffffffffffffffffffffffffffffffffff1673ffffffffffffffffffffffffffffffffffffffff161115156109a457600080fd5b600160003373ffffffffffffffffffffffffffffffffffffffff1673ffffffffffffffffffffffffffffffffffffffff1681526020019081526020016000209250826000018360010160009054906101000a900460ff168460020185600301838054600181600116156101000203166002900480601f016020809104026020016040519081016040528092919081815260200182805460018160011615610100020316600290048015610a985780601f10610a6d57610100808354040283529160200191610a98565b820191906000526020600020905b815481529060010190602001808311610a7b57829003601f168201915b50505050509350818054600181600116156101000203166002900480601f016020809104026020016040519081016040528092919081815260200182805460018160011615610100020316600290048015610b345780601f10610b0957610100808354040283529160200191610b34565b820191906000526020600020905b815481529060010190602001808311610b1757829003601f168201915b50505050509150808054600181600116156101000203166002900480601f016020809104026020016040519081016040528092919081815260200182805460018160011615610100020316600290048015610bd05780601f10610ba557610100808354040283529160200191610bd0565b820191906000526020600020905b815481529060010190602001808311610bb357829003601f168201915b50505050509050965096509650965050505090919293565b828054600181600116156101000203166002900490600052602060002090601f016020900481019282601f10610c2957805160ff1916838001178555610c57565b82800160010185558215610c57579182015b82811115610c56578251825591602001919060010190610c3b565b5b509050610c649190610c68565b5090565b610c8a91905b80821115610c86576000816000905550600101610c6e565b5090565b905600a165627a7a723058204b4b9b8400a4b9ae3258928408059f1e6ec58d3385ce9abd8b16b9bc0ee142190029",
  "source": "// SPDX-License-Identifier: MIT\npragma solidity >=0.4.22 <0.9.0;\n//https://ethereum.stackexchange.com/questions/8615/child-contract-vs-struct?newreg=9940955131d740a1a85cef648b771ef3\n\ncontract DoctorHealthBlock {\n\n  address private owner;\n\n  constructor(){\n    owner = msg.sender;\n  }\n\n  modifier onlyOwner() {\n    require(msg.sender == owner);\n    _;\n  }\n\n  mapping (address => doctor) internal doctors;\n\n  struct doctor {\n        string name;\n        uint8 age;\n        string email;\n        string specialization;\n        address id;\n\n  }\n\n  modifier checkDoctor(address id) {\n        doctor storage d = doctors[id];\n        require(d.id > address(0x0));//check if doctor exists\n        _;\n  }\n\n  function getDoctorInfo() public view checkDoctor(msg.sender) returns(string memory, uint8,string memory, string memory) {\n        doctor storage d = doctors[msg.sender];\n        return (d.name, d.age, d.email, d.specialization);\n  }\n\n  function registerDoctor(string memory _name, uint8 _age,string memory _email, string memory _specialization) public {\n        doctor storage d = doctors[msg.sender];\n        require(keccak256(abi.encodePacked(_name)) != keccak256(abi.encodePacked(\"\")));\n        require(keccak256(abi.encodePacked(_email)) != keccak256(abi.encodePacked(\"\")));\n        require(keccak256(abi.encodePacked(_specialization)) != keccak256(abi.encodePacked(\"\")));\n        require((_age > 0) && (_age < 100));\n        require(!(d.id > address(0x0)));\n        doctors[msg.sender] = doctor({name:_name,age:_age,id:msg.sender,email:_email, specialization:_specialization});\n        \n        \n  }\n  \n}",
  "sourcePath": "/Users/varunallasat/Documents/experiments/varun/healthblock/contracts/DoctorHealthBlock.sol",
  "compiler": {
    "name": "solc",
    "version": "0.4.26+commit.4563c3fc.Emscripten.clang"
  },
  "schemaVersion": "2.0.3",
  "updatedAt": "2022-11-25T16:38:29.875Z"
}