{
  "contractName": "HCProviderHealthBlock",
  "abi": [
    {
      "inputs": [],
      "stateMutability": "nonpayable",
      "type": "constructor"
    },
    {
      "inputs": [],
      "name": "getHCProviderInfo",
      "outputs": [
        {
          "internalType": "string",
          "name": "",
          "type": "string"
        },
        {
          "internalType": "string",
          "name": "",
          "type": "string"
        },
        {
          "internalType": "string",
          "name": "",
          "type": "string"
        },
        {
          "internalType": "uint8",
          "name": "",
          "type": "uint8"
        }
      ],
      "stateMutability": "view",
      "type": "function",
      "constant": true
    },
    {
      "inputs": [
        {
          "internalType": "string",
          "name": "_name",
          "type": "string"
        },
        {
          "internalType": "string",
          "name": "_email",
          "type": "string"
        },
        {
          "internalType": "string",
          "name": "_address",
          "type": "string"
        },
        {
          "internalType": "uint8",
          "name": "_phone",
          "type": "uint8"
        }
      ],
      "name": "registerDoctor",
      "outputs": [],
      "stateMutability": "nonpayable",
      "type": "function"
    }
  ],
  "bytecode": "0x608060405234801561001057600080fd5b50336000806101000a81548173ffffffffffffffffffffffffffffffffffffffff021916908373ffffffffffffffffffffffffffffffffffffffff160217905550610cee806100606000396000f3fe608060405234801561001057600080fd5b50600436106100365760003560e01c8063916922c41461003b578063fc5d733b1461005c575b600080fd5b610043610078565b60405161005394939291906106b8565b60405180910390f35b61007660048036038101906100719190610887565b610336565b005b60608060606000336000600160008373ffffffffffffffffffffffffffffffffffffffff1673ffffffffffffffffffffffffffffffffffffffff1681526020019081526020016000209050600073ffffffffffffffffffffffffffffffffffffffff168160030160019054906101000a900473ffffffffffffffffffffffffffffffffffffffff1673ffffffffffffffffffffffffffffffffffffffff161161012057600080fd5b6000600160003373ffffffffffffffffffffffffffffffffffffffff1673ffffffffffffffffffffffffffffffffffffffff16815260200190815260200160002090508060000181600101826002018360030160009054906101000a900460ff1683805461018d90610971565b80601f01602080910402602001604051908101604052809291908181526020018280546101b990610971565b80156102065780601f106101db57610100808354040283529160200191610206565b820191906000526020600020905b8154815290600101906020018083116101e957829003601f168201915b5050505050935082805461021990610971565b80601f016020809104026020016040519081016040528092919081815260200182805461024590610971565b80156102925780601f1061026757610100808354040283529160200191610292565b820191906000526020600020905b81548152906001019060200180831161027557829003601f168201915b505050505092508180546102a590610971565b80601f01602080910402602001604051908101604052809291908181526020018280546102d190610971565b801561031e5780601f106102f35761010080835404028352916020019161031e565b820191906000526020600020905b81548152906001019060200180831161030157829003601f168201915b50505050509150965096509650965050505090919293565b6000600160003373ffffffffffffffffffffffffffffffffffffffff1673ffffffffffffffffffffffffffffffffffffffff1681526020019081526020016000209050604051602001610388906109d3565b60405160208183030381529060405280519060200120856040516020016103af9190610a19565b60405160208183030381529060405280519060200120036103cf57600080fd5b6040516020016103de906109d3565b60405160208183030381529060405280519060200120846040516020016104059190610a19565b604051602081830303815290604052805190602001200361042557600080fd5b604051602001610434906109d3565b604051602081830303815290604052805190602001208360405160200161045b9190610a19565b604051602081830303815290604052805190602001200361047b57600080fd5b600073ffffffffffffffffffffffffffffffffffffffff168160030160019054906101000a900473ffffffffffffffffffffffffffffffffffffffff1673ffffffffffffffffffffffffffffffffffffffff1611156104d957600080fd5b6040518060a001604052808681526020018581526020018481526020018360ff1681526020013373ffffffffffffffffffffffffffffffffffffffff16815250600160003373ffffffffffffffffffffffffffffffffffffffff1673ffffffffffffffffffffffffffffffffffffffff168152602001908152602001600020600082015181600001908161056d9190610be6565b5060208201518160010190816105839190610be6565b5060408201518160020190816105999190610be6565b5060608201518160030160006101000a81548160ff021916908360ff16021790555060808201518160030160016101000a81548173ffffffffffffffffffffffffffffffffffffffff021916908373ffffffffffffffffffffffffffffffffffffffff1602179055509050505050505050565b600081519050919050565b600082825260208201905092915050565b60005b8381101561064657808201518184015260208101905061062b565b60008484015250505050565b6000601f19601f8301169050919050565b600061066e8261060c565b6106788185610617565b9350610688818560208601610628565b61069181610652565b840191505092915050565b600060ff82169050919050565b6106b28161069c565b82525050565b600060808201905081810360008301526106d28187610663565b905081810360208301526106e68186610663565b905081810360408301526106fa8185610663565b905061070960608301846106a9565b95945050505050565b6000604051905090565b600080fd5b600080fd5b600080fd5b600080fd5b7f4e487b7100000000000000000000000000000000000000000000000000000000600052604160045260246000fd5b61076882610652565b810181811067ffffffffffffffff8211171561078757610786610730565b5b80604052505050565b600061079a610712565b90506107a6828261075f565b919050565b600067ffffffffffffffff8211156107c6576107c5610730565b5b6107cf82610652565b9050602081019050919050565b82818337600083830152505050565b60006107fe6107f9846107ab565b610790565b90508281526020810184848401111561081a5761081961072b565b5b6108258482856107dc565b509392505050565b600082601f83011261084257610841610726565b5b81356108528482602086016107eb565b91505092915050565b6108648161069c565b811461086f57600080fd5b50565b6000813590506108818161085b565b92915050565b600080600080608085870312156108a1576108a061071c565b5b600085013567ffffffffffffffff8111156108bf576108be610721565b5b6108cb8782880161082d565b945050602085013567ffffffffffffffff8111156108ec576108eb610721565b5b6108f88782880161082d565b935050604085013567ffffffffffffffff81111561091957610918610721565b5b6109258782880161082d565b925050606061093687828801610872565b91505092959194509250565b7f4e487b7100000000000000000000000000000000000000000000000000000000600052602260045260246000fd5b6000600282049050600182168061098957607f821691505b60208210810361099c5761099b610942565b5b50919050565b600081905092915050565b50565b60006109bd6000836109a2565b91506109c8826109ad565b600082019050919050565b60006109de826109b0565b9150819050919050565b60006109f38261060c565b6109fd81856109a2565b9350610a0d818560208601610628565b80840191505092915050565b6000610a2582846109e8565b915081905092915050565b60008190508160005260206000209050919050565b60006020601f8301049050919050565b600082821b905092915050565b600060088302610a927fffffffffffffffffffffffffffffffffffffffffffffffffffffffffffffffff82610a55565b610a9c8683610a55565b95508019841693508086168417925050509392505050565b6000819050919050565b6000819050919050565b6000610ae3610ade610ad984610ab4565b610abe565b610ab4565b9050919050565b6000819050919050565b610afd83610ac8565b610b11610b0982610aea565b848454610a62565b825550505050565b600090565b610b26610b19565b610b31818484610af4565b505050565b5b81811015610b5557610b4a600082610b1e565b600181019050610b37565b5050565b601f821115610b9a57610b6b81610a30565b610b7484610a45565b81016020851015610b83578190505b610b97610b8f85610a45565b830182610b36565b50505b505050565b600082821c905092915050565b6000610bbd60001984600802610b9f565b1980831691505092915050565b6000610bd68383610bac565b9150826002028217905092915050565b610bef8261060c565b67ffffffffffffffff811115610c0857610c07610730565b5b610c128254610971565b610c1d828285610b59565b600060209050601f831160018114610c505760008415610c3e578287015190505b610c488582610bca565b865550610cb0565b601f198416610c5e86610a30565b60005b82811015610c8657848901518255600182019150602085019450602081019050610c61565b86831015610ca35784890151610c9f601f891682610bac565b8355505b6001600288020188555050505b50505050505056fea264697066735822122026c859abbdb2f38643c14f2a38318b83b6a9dea5ab3466812b5fbd1670cb72fe64736f6c63430008110033",
  "immutableReferences": {},
  "source": "// SPDX-License-Identifier: MIT\npragma solidity >=0.4.22 <0.9.0;\n//https://ethereum.stackexchange.com/questions/8615/child-contract-vs-struct?newreg=9940955131d740a1a85cef648b771ef3\n\ncontract HCProviderHealthBlock {\n\n  address private owner;\n\n  constructor(){\n    owner = msg.sender;\n  }\n\n  modifier onlyOwner() {\n    require(msg.sender == owner);\n    _;\n  }\n\n  mapping (address => hcprovider) internal hcproviders;\n\n  struct hcprovider {\n        string name;\n        string email;\n        string providerAddress;\n        uint8 phone;\n        address id;\n\n  }\n\n  modifier checkHealthCareProvider(address id) {\n        hcprovider storage h = hcproviders[id];\n        require(h.id > address(0x0));//check if HealthCare Provider exists\n        _;\n  }\n\n  function getHCProviderInfo() public view checkHealthCareProvider(msg.sender) returns(string memory, string memory, string memory,  uint8) {\n        hcprovider storage h = hcproviders[msg.sender];\n        return (h.name, h.email, h.providerAddress, h.phone);\n  }\n\n  function registerDoctor(string memory _name, string memory _email, string memory _address, uint8 _phone) public {\n        hcprovider storage h = hcproviders[msg.sender];\n        require(keccak256(abi.encodePacked(_name)) != keccak256(abi.encodePacked(\"\")));\n        require(keccak256(abi.encodePacked(_email)) != keccak256(abi.encodePacked(\"\")));\n        require(keccak256(abi.encodePacked(_address)) != keccak256(abi.encodePacked(\"\")));\n        //require((_phone > 0) && (_phone < 100));\n        require(!(h.id > address(0x0)));\n        hcproviders[msg.sender] = hcprovider({name:_name, email:_email, providerAddress:_address, phone:_phone, id:msg.sender});\n  }\n  \n}",
  "sourcePath": "/Users/aishwaryaravi/Desktop/Patient Portal/HealthBlock/contracts/HCProviderHealthBlock.sol",
  "compiler": {
    "name": "solc",
    "version": "0.8.17+commit.8df45f5f.Emscripten.clang"
  },
  "schemaVersion": "3.4.10",
  "updatedAt": "2023-02-27T08:59:32.188Z",
  "networkType": "ethereum",
  "devdoc": {
    "kind": "dev",
    "methods": {},
    "version": 1
  },
  "userdoc": {
    "kind": "user",
    "methods": {},
    "version": 1
  }
}