{
  "contractName": "HealthBlock",
  "abi": [
    {
      "inputs": [],
      "stateMutability": "nonpayable",
      "type": "constructor"
    },
    {
      "inputs": [],
      "name": "getPatientInfo",
      "outputs": [
        {
          "internalType": "string",
          "name": "",
          "type": "string"
        },
        {
          "internalType": "uint8",
          "name": "",
          "type": "uint8"
        },
        {
          "internalType": "string",
          "name": "",
          "type": "string"
        }
      ],
      "stateMutability": "view",
      "type": "function",
      "constant": true
    },
    {
      "inputs": [
        {
          "internalType": "string",
          "name": "_name",
          "type": "string"
        },
        {
          "internalType": "uint8",
          "name": "_age",
          "type": "uint8"
        },
        {
          "internalType": "string",
          "name": "_email",
          "type": "string"
        }
      ],
      "name": "registerPatient",
      "outputs": [],
      "stateMutability": "nonpayable",
      "type": "function"
    }
  ],
  "bytecode": "0x608060405234801561001057600080fd5b50336000806101000a81548173ffffffffffffffffffffffffffffffffffffffff021916908373ffffffffffffffffffffffffffffffffffffffff160217905550610bc0806100606000396000f3fe608060405234801561001057600080fd5b50600436106100365760003560e01c80631c2972051461003b578063326df66414610057575b600080fd5b610055600480360381019061005091906106b6565b610077565b005b61005f6102f9565b60405161006e939291906107cf565b60405180910390f35b6000600160003373ffffffffffffffffffffffffffffffffffffffff1673ffffffffffffffffffffffffffffffffffffffff16815260200190815260200160002090506040516020016100c990610845565b60405160208183030381529060405280519060200120846040516020016100f0919061088b565b604051602081830303815290604052805190602001200361011057600080fd5b60405160200161011f90610845565b6040516020818303038152906040528051906020012082604051602001610146919061088b565b604051602081830303815290604052805190602001200361016657600080fd5b60008360ff1611801561017c575060648360ff16105b61018557600080fd5b600073ffffffffffffffffffffffffffffffffffffffff168160030160009054906101000a900473ffffffffffffffffffffffffffffffffffffffff1673ffffffffffffffffffffffffffffffffffffffff1611156101e357600080fd5b60405180608001604052808581526020018460ff1681526020018381526020013373ffffffffffffffffffffffffffffffffffffffff16815250600160003373ffffffffffffffffffffffffffffffffffffffff1673ffffffffffffffffffffffffffffffffffffffff16815260200190815260200160002060008201518160000190816102719190610ab8565b5060208201518160010160006101000a81548160ff021916908360ff16021790555060408201518160020190816102a89190610ab8565b5060608201518160030160006101000a81548173ffffffffffffffffffffffffffffffffffffffff021916908373ffffffffffffffffffffffffffffffffffffffff16021790555090505050505050565b606060006060336000600160008373ffffffffffffffffffffffffffffffffffffffff1673ffffffffffffffffffffffffffffffffffffffff1681526020019081526020016000209050600073ffffffffffffffffffffffffffffffffffffffff168160030160009054906101000a900473ffffffffffffffffffffffffffffffffffffffff1673ffffffffffffffffffffffffffffffffffffffff16116103a057600080fd5b6000600160003373ffffffffffffffffffffffffffffffffffffffff1673ffffffffffffffffffffffffffffffffffffffff1681526020019081526020016000209050806000018160010160009054906101000a900460ff1682600201828054610409906108d1565b80601f0160208091040260200160405190810160405280929190818152602001828054610435906108d1565b80156104825780601f1061045757610100808354040283529160200191610482565b820191906000526020600020905b81548152906001019060200180831161046557829003601f168201915b50505050509250808054610495906108d1565b80601f01602080910402602001604051908101604052809291908181526020018280546104c1906108d1565b801561050e5780601f106104e35761010080835404028352916020019161050e565b820191906000526020600020905b8154815290600101906020018083116104f157829003601f168201915b50505050509050955095509550505050909192565b6000604051905090565b600080fd5b600080fd5b600080fd5b600080fd5b6000601f19601f8301169050919050565b7f4e487b7100000000000000000000000000000000000000000000000000000000600052604160045260246000fd5b61058a82610541565b810181811067ffffffffffffffff821117156105a9576105a8610552565b5b80604052505050565b60006105bc610523565b90506105c88282610581565b919050565b600067ffffffffffffffff8211156105e8576105e7610552565b5b6105f182610541565b9050602081019050919050565b82818337600083830152505050565b600061062061061b846105cd565b6105b2565b90508281526020810184848401111561063c5761063b61053c565b5b6106478482856105fe565b509392505050565b600082601f83011261066457610663610537565b5b813561067484826020860161060d565b91505092915050565b600060ff82169050919050565b6106938161067d565b811461069e57600080fd5b50565b6000813590506106b08161068a565b92915050565b6000806000606084860312156106cf576106ce61052d565b5b600084013567ffffffffffffffff8111156106ed576106ec610532565b5b6106f98682870161064f565b935050602061070a868287016106a1565b925050604084013567ffffffffffffffff81111561072b5761072a610532565b5b6107378682870161064f565b9150509250925092565b600081519050919050565b600082825260208201905092915050565b60005b8381101561077b578082015181840152602081019050610760565b60008484015250505050565b600061079282610741565b61079c818561074c565b93506107ac81856020860161075d565b6107b581610541565b840191505092915050565b6107c98161067d565b82525050565b600060608201905081810360008301526107e98186610787565b90506107f860208301856107c0565b818103604083015261080a8184610787565b9050949350505050565b600081905092915050565b50565b600061082f600083610814565b915061083a8261081f565b600082019050919050565b600061085082610822565b9150819050919050565b600061086582610741565b61086f8185610814565b935061087f81856020860161075d565b80840191505092915050565b6000610897828461085a565b915081905092915050565b7f4e487b7100000000000000000000000000000000000000000000000000000000600052602260045260246000fd5b600060028204905060018216806108e957607f821691505b6020821081036108fc576108fb6108a2565b5b50919050565b60008190508160005260206000209050919050565b60006020601f8301049050919050565b600082821b905092915050565b6000600883026109647fffffffffffffffffffffffffffffffffffffffffffffffffffffffffffffffff82610927565b61096e8683610927565b95508019841693508086168417925050509392505050565b6000819050919050565b6000819050919050565b60006109b56109b06109ab84610986565b610990565b610986565b9050919050565b6000819050919050565b6109cf8361099a565b6109e36109db826109bc565b848454610934565b825550505050565b600090565b6109f86109eb565b610a038184846109c6565b505050565b5b81811015610a2757610a1c6000826109f0565b600181019050610a09565b5050565b601f821115610a6c57610a3d81610902565b610a4684610917565b81016020851015610a55578190505b610a69610a6185610917565b830182610a08565b50505b505050565b600082821c905092915050565b6000610a8f60001984600802610a71565b1980831691505092915050565b6000610aa88383610a7e565b9150826002028217905092915050565b610ac182610741565b67ffffffffffffffff811115610ada57610ad9610552565b5b610ae482546108d1565b610aef828285610a2b565b600060209050601f831160018114610b225760008415610b10578287015190505b610b1a8582610a9c565b865550610b82565b601f198416610b3086610902565b60005b82811015610b5857848901518255600182019150602085019450602081019050610b33565b86831015610b755784890151610b71601f891682610a7e565b8355505b6001600288020188555050505b50505050505056fea2646970667358221220abbe690717587cbbf33bcffc57c38c1aa238012e4bbf3f16e6c77acf10f1697c64736f6c63430008110033",
  "immutableReferences": {},
  "source": "// SPDX-License-Identifier: MIT\npragma solidity >=0.4.22 <0.9.0;\n//https://ethereum.stackexchange.com/questions/8615/child-contract-vs-struct?newreg=9940955131d740a1a85cef648b771ef3\ncontract HealthBlock {\n\n  address private owner;\n\n  constructor(){\n    owner = msg.sender;\n  }\n\n  modifier onlyOwner() {\n    require(msg.sender == owner);\n    _;\n  }\n\n  mapping (address => patient) internal patients;\n\n  struct patient {\n        string name;\n        uint8 age;\n        string email;\n        address id;\n  }\n\n  modifier checkPatient(address id) {\n        patient storage p = patients[id];\n        require(p.id > address(0x0));//check if patient exist\n        _;\n  }\n\n  function getPatientInfo() public view checkPatient(msg.sender) returns(string memory, uint8,string memory) {\n        patient storage p = patients[msg.sender];\n        return (p.name, p.age, p.email);\n  }\n\n  function registerPatient(string memory _name, uint8 _age,string memory _email) public {\n        patient storage p = patients[msg.sender];\n        require(keccak256(abi.encodePacked(_name)) != keccak256(abi.encodePacked(\"\")));\n        require(keccak256(abi.encodePacked(_email)) != keccak256(abi.encodePacked(\"\")));\n        require((_age > 0) && (_age < 100));\n        require(!(p.id > address(0x0)));\n\n        patients[msg.sender] = patient({name:_name,age:_age,id:msg.sender,email:_email});\n  }\n  \n}\n",
  "sourcePath": "/Users/varunallasat/Documents/experiments/varun/healthblock/contracts/HealthBlock.sol",
  "compiler": {
    "name": "solc",
    "version": "0.8.17+commit.8df45f5f.Emscripten.clang"
  },
  "schemaVersion": "3.4.10",
  "updatedAt": "2022-11-13T08:30:11.738Z",
  "networkType": "ethereum",
  "devdoc": {
    "kind": "dev",
    "methods": {},
    "version": 1
  },
  "userdoc": {
    "kind": "user",
    "methods": {},
    "version": 1
  }
}