{
  "contractName": "HealthBlock",
  "abi": [
    {
      "constant": true,
      "inputs": [
        {
          "name": "",
          "type": "address"
        }
      ],
      "name": "patients",
      "outputs": [
        {
          "name": "name",
          "type": "string"
        },
        {
          "name": "age",
          "type": "uint8"
        },
        {
          "name": "email",
          "type": "string"
        },
        {
          "name": "id",
          "type": "address"
        }
      ],
      "payable": false,
      "stateMutability": "view",
      "type": "function"
    },
    {
      "inputs": [],
      "payable": false,
      "stateMutability": "nonpayable",
      "type": "constructor"
    },
    {
      "anonymous": false,
      "inputs": [
        {
          "indexed": true,
          "name": "_from",
          "type": "address"
        },
        {
          "indexed": true,
          "name": "_name",
          "type": "string"
        }
      ],
      "name": "NPatient",
      "type": "event"
    },
    {
      "constant": false,
      "inputs": [
        {
          "name": "_name",
          "type": "string"
        },
        {
          "name": "_age",
          "type": "uint8"
        },
        {
          "name": "_email",
          "type": "string"
        }
      ],
      "name": "registerPatient",
      "outputs": [],
      "payable": false,
      "stateMutability": "nonpayable",
      "type": "function"
    },
    {
      "constant": true,
      "inputs": [],
      "name": "getPatientInfo",
      "outputs": [
        {
          "name": "",
          "type": "string"
        },
        {
          "name": "",
          "type": "uint8"
        },
        {
          "name": "",
          "type": "string"
        }
      ],
      "payable": false,
      "stateMutability": "view",
      "type": "function"
    }
  ],
  "bytecode": "0x608060405234801561001057600080fd5b50336000806101000a81548173ffffffffffffffffffffffffffffffffffffffff021916908373ffffffffffffffffffffffffffffffffffffffff160217905550610ce0806100606000396000f300608060405260043610610057576000357c0100000000000000000000000000000000000000000000000000000000900463ffffffff1680630869cfbc1461005c5780631c297205146101c4578063326df66414610280575b600080fd5b34801561006857600080fd5b5061009d600480360381019080803573ffffffffffffffffffffffffffffffffffffffff169060200190929190505050610389565b60405180806020018560ff1660ff168152602001806020018473ffffffffffffffffffffffffffffffffffffffff1673ffffffffffffffffffffffffffffffffffffffff168152602001838103835287818151815260200191508051906020019080838360005b8381101561011f578082015181840152602081019050610104565b50505050905090810190601f16801561014c5780820380516001836020036101000a031916815260200191505b50838103825285818151815260200191508051906020019080838360005b8381101561018557808201518184015260208101905061016a565b50505050905090810190601f1680156101b25780820380516001836020036101000a031916815260200191505b50965050505050505060405180910390f35b3480156101d057600080fd5b5061027e600480360381019080803590602001908201803590602001908080601f0160208091040260200160405190810160405280939291908181526020018383808284378201915050505050509192919290803560ff169060200190929190803590602001908201803590602001908080601f0160208091040260200160405190810160405280939291908181526020018383808284378201915050505050509192919290505050610516565b005b34801561028c57600080fd5b506102956109c3565b60405180806020018460ff1660ff16815260200180602001838103835286818151815260200191508051906020019080838360005b838110156102e55780820151818401526020810190506102ca565b50505050905090810190601f1680156103125780820380516001836020036101000a031916815260200191505b50838103825284818151815260200191508051906020019080838360005b8381101561034b578082015181840152602081019050610330565b50505050905090810190601f1680156103785780820380516001836020036101000a031916815260200191505b509550505050505060405180910390f35b6001602052806000526040600020600091509050806000018054600181600116156101000203166002900480601f0160208091040260200160405190810160405280929190818152602001828054600181600116156101000203166002900480156104355780601f1061040a57610100808354040283529160200191610435565b820191906000526020600020905b81548152906001019060200180831161041857829003601f168201915b5050505050908060010160009054906101000a900460ff1690806002018054600181600116156101000203166002900480601f0160208091040260200160405190810160405280929190818152602001828054600181600116156101000203166002900480156104e65780601f106104bb576101008083540402835291602001916104e6565b820191906000526020600020905b8154815290600101906020018083116104c957829003601f168201915b5050505050908060030160009054906101000a900473ffffffffffffffffffffffffffffffffffffffff16905084565b6040516020018060000190506040516020818303038152906040526040518082805190602001908083835b6020831015156105665780518252602082019150602081019050602083039250610541565b6001836020036101000a038019825116818451168082178552505050505050905001915050604051809103902060001916836040516020018082805190602001908083835b6020831015156105d057805182526020820191506020810190506020830392506105ab565b6001836020036101000a0380198251168184511680821785525050505050509050019150506040516020818303038152906040526040518082805190602001908083835b6020831015156106395780518252602082019150602081019050602083039250610614565b6001836020036101000a0380198251168184511680821785525050505050509050019150506040518091039020600019161415151561067757600080fd5b6040516020018060000190506040516020818303038152906040526040518082805190602001908083835b6020831015156106c757805182526020820191506020810190506020830392506106a2565b6001836020036101000a038019825116818451168082178552505050505050905001915050604051809103902060001916816040516020018082805190602001908083835b602083101515610731578051825260208201915060208101905060208303925061070c565b6001836020036101000a0380198251168184511680821785525050505050509050019150506040516020818303038152906040526040518082805190602001908083835b60208310151561079a5780518252602082019150602081019050602083039250610775565b6001836020036101000a038019825116818451168082178552505050505050905001915050604051809103902060001916141515156107d857600080fd5b60008260ff161180156107ee575060648260ff16105b15156107f957600080fd5b6080604051908101604052808481526020018360ff1681526020018281526020013373ffffffffffffffffffffffffffffffffffffffff16815250600160003373ffffffffffffffffffffffffffffffffffffffff1673ffffffffffffffffffffffffffffffffffffffff168152602001908152602001600020600082015181600001908051906020019061088f929190610c0f565b5060208201518160010160006101000a81548160ff021916908360ff16021790555060408201518160020190805190602001906108cd929190610c0f565b5060608201518160030160006101000a81548173ffffffffffffffffffffffffffffffffffffffff021916908373ffffffffffffffffffffffffffffffffffffffff160217905550905050826040518082805190602001908083835b60208310151561094e5780518252602082019150602081019050602083039250610929565b6001836020036101000a03801982511681845116808217855250505050505090500191505060405180910390203373ffffffffffffffffffffffffffffffffffffffff167fe3413e34d7cfab2884866aa8dfc64b0c31d51db035044e04a349a1faf6c7d67660405160405180910390a3505050565b6060600060606000336000600160008373ffffffffffffffffffffffffffffffffffffffff1673ffffffffffffffffffffffffffffffffffffffff1681526020019081526020016000209050600073ffffffffffffffffffffffffffffffffffffffff168160030160009054906101000a900473ffffffffffffffffffffffffffffffffffffffff1673ffffffffffffffffffffffffffffffffffffffff16111515610a6e57600080fd5b600160003373ffffffffffffffffffffffffffffffffffffffff1673ffffffffffffffffffffffffffffffffffffffff1681526020019081526020016000209250826000018360010160009054906101000a900460ff1684600201828054600181600116156101000203166002900480601f016020809104026020016040519081016040528092919081815260200182805460018160011615610100020316600290048015610b5e5780601f10610b3357610100808354040283529160200191610b5e565b820191906000526020600020905b815481529060010190602001808311610b4157829003601f168201915b50505050509250808054600181600116156101000203166002900480601f016020809104026020016040519081016040528092919081815260200182805460018160011615610100020316600290048015610bfa5780601f10610bcf57610100808354040283529160200191610bfa565b820191906000526020600020905b815481529060010190602001808311610bdd57829003601f168201915b50505050509050955095509550505050909192565b828054600181600116156101000203166002900490600052602060002090601f016020900481019282601f10610c5057805160ff1916838001178555610c7e565b82800160010185558215610c7e579182015b82811115610c7d578251825591602001919060010190610c62565b5b509050610c8b9190610c8f565b5090565b610cb191905b80821115610cad576000816000905550600101610c95565b5090565b905600a165627a7a723058207bf93cc15d71be0280d0a4eb1ddbc1fcef24742e733cbf85cb4b9037857e9a670029",
  "source": "// SPDX-License-Identifier: MIT\npragma solidity >=0.4.22 <0.9.0;\n//https://ethereum.stackexchange.com/questions/8615/child-contract-vs-struct?newreg=9940955131d740a1a85cef648b771ef3\ncontract HealthBlock {\n    address private owner;\n    struct patient {\n        string name;\n        uint8 age;\n        string email;\n        address id;\n    }\n    // event for EVM logging\n    event NPatient(address indexed _from, string indexed _name);\n    mapping (address => patient) public patients;\n\n\n    /**\n     * @dev Set contract deployer as owner\n     */\n    constructor() {\n        owner = msg.sender; // 'msg.sender' is sender of current call, contract deployer for a constructor\n    }\n    modifier checkPatient(address id) {\n        patient storage p = patients[id];\n        require(p.id > address(0x0));//check if patient exist\n        _;\n    }\n    function registerPatient(string memory _name, uint8 _age,string memory _email) public {\n        //patient storage p = patients[msg.sender];\n        require(keccak256(abi.encodePacked(_name)) != keccak256(abi.encodePacked(\"\")));\n        require(keccak256(abi.encodePacked(_email)) != keccak256(abi.encodePacked(\"\")));\n        require((_age > 0) && (_age < 100));\n        patients[msg.sender] = patient({name:_name,age:_age,id:msg.sender,email:_email});\n        emit NPatient(msg.sender, _name);\n    }\n    function getPatientInfo() public view checkPatient(msg.sender) returns(string memory, uint8, string memory) {\n        patient storage p = patients[msg.sender];\n        return (p.name, p.age, p.email);\n    }  \n}\n",
  "sourcePath": "/Users/varunallasat/Documents/experiments/varun/healthblock/contracts/HealthBlock.sol",
  "compiler": {
    "name": "solc",
    "version": "0.4.26+commit.4563c3fc.Emscripten.clang"
  },
  "schemaVersion": "2.0.3",
  "updatedAt": "2022-11-25T16:38:29.879Z"
}